:020000040800F2
:10000000F0360020BD010008312100080D1D000858
:100010002D21000899090008F923000800000000BC
:100020000000000000000000000000009121000816
:10003000150D00080000000041210008DD23000824
:10004000D7010008D7010008D7010008D701000830
:10005000D7010008D7010008D7010008D701000820
:10006000190D0008D7010008210D0008D70100086C
:10007000D7010008D7010008D7010008D701000800
:10008000D7010008D7010008D7010008D7010008F0
:10009000D7010008D7010008D7010008D7010008E0
:1000A000D7010008D7010008D7010008D7010008D0
:1000B000D7010008D7010008D7010008D7010008C0
:1000C000D7010008D7010008D7010008D7010008B0
:1000D000D7010008D7010008D7010008D7010008A0
:1000E000D7010008D7010008D701000800F002F886
:1000F00000F055F814A696E8000CB244B344DA4573
:1001000001D100F04CF8BAE80F000FA696E83000D5
:10011000A5EB040504EB0607AAEB0704A7F101070A
:100120004FEA15154FEA3414A4F10104AC4201D38F
:1001300000F035F813F0010F18BFFB1A43F001036C
:1001400000F001F8DBE71847EC6400000C650000E4
:10015000103A24BF78C878C1FAD8520724BF30C8F3
:1001600030C144BF04680C60704700007047000055
:100170000023002400250026103A28BF78C1FBD8B0
:10018000520728BF30C148BF0B607047752900F087
:100190007D80002070471FB51FBD10B510BD00F059
:1001A000C1FB1146FFF7F7FF02F0DEFC00F0DFFBBA
:1001B00003B4FFF7F2FF03BC00F0E6FB09488047F9
:1001C00009480047FEE7FEE7FEE7FEE7FEE7FEE739
:1001D000FEE7FEE7FEE7FEE704480549054A064B51
:1001E00070470000F5230008ED000008F030002003
:1001F000F0360020F0320020F03200200FB41CB5A1
:100200000C0007AA009007D04142A14202D320442B
:10021000401E01E04FF0FF30074B7B4469460190E0
:10022000069800F064FB0020002C01D000990870B3
:100230001CBC5DF814FB0000F706000070B5044616
:1002400085690068C10601D5302600E02026C00778
:1002500007D070BDD4E9012130469047206A401C88
:1002600020626D1EF6D570BD70B5044685690078B4
:10027000C00707D170BDD4E9012120209047206A32
:10028000401C20626D1EF6D570BD00002DE9F041C6
:100290000646002410687529314616A510D0AFF324
:1002A0000080002802DA404213A507E031688A077F
:1002B00001D512A502E0490704D511A5012401E0EA
:1002C000AFF3008000210A2206F1240709E0B0FB09
:1002D000F2FCB0FBF2F302FB1C00303078541846FD
:1002E000491C0028F3D123462A463046BDE8F04198
:1002F00000F09FBA000000002D0000002B0000005D
:10030000200000002DE9F05F894604464FF0000A06
:10031000DFF874B1FB44C0F820A02046E1688847AC
:10032000002874D0252806D0D4E901219047206AFE
:10033000401C2062F1E700265F462046E1688847BE
:100340002028054607DB312D05D2781910F8200C3E
:1003500008B10643F1E7B00701D526F00406C4F85A
:100360001CA00027C4F818A02A2D09D0284605F0A3
:1003700080FD38B304EB8708303DC8F8185019E009
:1003800059F8041B204604EB87029161E168884715
:10039000012F054618D1E069002820DA26F0200652
:1003A0001DE0D8F8180000EB800005EB4000303865
:1003B000C8F818002046E1688847054605F059FD51
:1003C0000028EED1012F0AD02E2D08D12046E16859
:1003D00088477F1C0546022F46F02006C4DBA06933
:1003E000002803DA404246F00106A061F00701D080
:1003F00026F010066C2D0BD0682D09D04C2D39D06D
:100400006A2D35D0742D35D07A2D33D016E038E0F2
:10041000E1682F4620468847B842054609D16C2F2F
:1004200026D04FF48060E1680643204688470546A1
:1004300004E06C2F1AD04FF4807006430DB3A5F181
:100440004100192802D8203546F400664A4629465C
:10045000204626604E46FFF799FE80B101280BD05A
:10046000F61D26F0070000F1080956E74020E4E7F2
:100470008020D8E70020D6E706F104094DE728469A
:1004800052E7206ABDE8F09F3E6200002DE9F04F80
:100490009B4616464FF00109C1B020910090A9F18A
:1004A000010920A85DF8295050F82900C5E04FEA5D
:1004B0005A0070432C185FEACA7100D1801B5A465B
:1004C000214627182846904700280EDD304646EA88
:1004D0000501890765D022782978401E05F8012B8F
:1004E00004F8011BF7D1AD1BA41B5A463946204620
:1004F0009047002823DD5A46394628469047002871
:100500000EDD304646EA0501890751D03A78297850
:10051000401E05F8012B07F8011BF7D1AD1BBF1BCF
:10052000304646EA0401890749D03A782178401ECE
:1005300004F8012B07F8011BF7D1A41BBF1B3146A0
:1005400046EA0402B81B920740D003782278491E7D
:1005500004F8013B00F8012BF7D12C46871BB84665
:1005600034445A464146204690470028F8DB5A4614
:100570004146BF1B384690470028F8DC304646EA23
:100580000401A7424FEA81712ED931B33A7821781C
:10059000401E04F8012B07F8011BF7D1A41BBF1B59
:1005A000DEE722682968001F04C502C4F9D19AE772
:1005B0003A682968001F04C502C7F9D1AEE73A6856
:1005C0002168001F04C402C7F9D1B6E70368226896
:1005D000091F08C404C0F9D1BFE73A682168001FA9
:1005E00004C402C7F9D1D9E7E1B198F80020217815
:1005F000401E04F8012B08F8011BF6D1A21B501B6A
:10060000B0FBF6F0401EAAEB0001491E884216D945
:100610000A2910D920AB4DF8295043F8290009F1D7
:10062000010918E0D8F800202168001F04C448F828
:10063000041BF7D1E2E70A2810D9824637E70A28D7
:1006400007D94DF8292020AA42F8291009F10109FB
:10065000F3E70A2902D915468A4628E7B9F1000FBF
:100660007FF41DAF41B0BDE8F08F2DE9F04799460A
:100670000F460646140039D0002F37D00A2F01D973
:10068000FFF704FF7F1E354607FB04582CE02F467A
:10069000254400E03F1BB74205D34A462946384669
:1006A00090470028F6DC44EA05003B1980070CD08F
:1006B000002117E029180A1B0F6802E01168115188
:1006C000121B9A42FAD2001D1751A0420CD2F1E738
:1006D0006818027801E007780755001B9842FAD2A3
:1006E000491C0255A142F3D34545D0D3BDE8F0875C
:1006F000032A40F2308010F0030C00F0158011F84E
:10070000013BBCF1020F624498BF11F801CB00F825
:10071000013B38BF11F8013BA2F1040298BF00F879
:1007200001CB38BF00F8013B11F0030300F0258036
:10073000083AC0F0088051F8043B083A51F804CB5D
:10074000A0E80810F5E7121D5CBF51F8043B40F823
:10075000043BAFF30080D20724BF11F8013B11F82E
:1007600001CB48BF11F8012B24BF00F8013B00F872
:1007700001CB48BF00F8012B704710B5203AC0F0FC
:100780000B80B1E81850A0E81850B1E81850A0E864
:100790001850203ABFF4F5AF5FEA027C24BFB1E8FD
:1007A0001850A0E8185044BF18C918C0BDE8104040
:1007B0005FEA827C24BF51F8043B40F8043B08BF49
:1007C0007047D20728BF31F8023B48BF11F8012B10
:1007D00028BF20F8023B48BF00F8012B70474FF0BC
:1007E000000200B5134694469646203922BFA0E881
:1007F0000C50A0E80C50B1F12001BFF4F7AF09078D
:1008000028BFA0E80C5048BF0CC05DF804EB89007D
:1008100028BF40F8042B08BF704748BF20F8022BC0
:1008200011F0804F18BF00F8012B704770477047D8
:1008300070472DE9F0470D4699469246044600F16F
:1008400024080168880604D5E06921F010012160C0
:1008500000E00120A84201DD471B00E00027A1695C
:100860007A1902EB0900081AA0612078C00602D4A8
:100870002046FFF7E3FC002608E0D4E901211AF83E
:1008800006009047206A401C761C20624E45F4DB2F
:100890002078C0060AD52046FFF7D0FC06E0D4E950
:1008A000012130209047206A401C2062381EA7F1A9
:1008B0000107F4DC07E0D4E9012118F805009047AE
:1008C000206A401C2062281EA5F10105F3DC2046A9
:1008D000FFF7CAFC2078000602D50220BDE8F087A9
:1008E0000120FBE701694A1C02610878704700B5E6
:1008F0008FB0CDE901310021059105497944CDE959
:10090000031011466846FFF7FDFC0FB000BD000064
:10091000E5FFFFFFD1E900239A4202D2531C0B608E
:1009200010707047754600F02BF8AE46050069461A
:10093000534620F00700854618B020B5FFF74CFC61
:10094000BDE820404FF000064FF000074FF00008D0
:100950004FF0000BAC46ACE8C009ACE8C009ACE80D
:10096000C009ACE8C00921F007018D46704710B5F9
:100970000446AFF300802046BDE81040FFF718BCE6
:10098000004870471000002001491820ABBEFEE768
:100990002600020070470000FEE70000002818BF94
:1009A000002901D1704700BF2DE9F04182B00160FC
:1009B00040F22861089FC1F20C41C0F807100821DD
:1009C000027143718771C1720446322000F0ACF9A4
:1009D000E07A3825002808BF30252E1D0020382752
:1009E0008DF8046000F0A0F900208DF805508DF816
:1009F000066000F099F9206821794FF47A7801AA0D
:100A000004238DF80750CDF8008000F085FCE07AD3
:100A10003826002808BF3026351D00208DF80450E8
:100A200000F082F900208DF805608DF8065000F086
:100A30007BF92068217901AA04238DF80760CDF89D
:100A4000008000F069FC052000F06EF9E07A2825AE
:100A5000002808BF302707F1040008BF20258DF8C3
:100A600004000020282600F05FF9281D8DF80600FC
:100A700000208DF8057000F057F92068217901AA4F
:100A800004238DF80750CDF8008000F045FC0520C8
:100A900000F04AF9E07A2825002818BF012008BF95
:100AA0002025C700281D8DF80400002000F03CF927
:100AB000381D8DF8060000208DF8055000F034F93F
:100AC0002068217901AA04238DF80770CDF80080F1
:100AD00000F022FC052000F027F9207AE27A0101DB
:100AE00020F00F0501F10807002A14BF083507019F
:100AF000281D8DF80400002000F016F9381D8DF82F
:100B0000060000208DF8055000F00EF920682179CC
:100B100001AA04238DF80770CDF8008000F0FCFBDB
:100B2000607AE27A010120F00F0501F10807002A3E
:100B300014BF08350701281D8DF80400002000F0BF
:100B4000F3F8381D8DF8060000208DF8055000F0F0
:100B5000EBF82068217901AA04238DF80770CDF8FD
:100B6000008000F0D9FBA07AE27A010120F00F05A5
:100B700001F10807002A14BF08350701281D8DF868
:100B80000400002000F0D0F8381D8DF80600002089
:100B90008DF8055000F0C8F82068217901AA0423D7
:100BA0008DF80770CDF8008000F0B6FBE079E27AAE
:100BB000010120F00F0501F10807002A14BF0835D4
:100BC0000701281D8DF80400002000F0ADF8381D45
:100BD0008DF8060000208DF8055000F0A5F820687B
:100BE000217901AA04238DF80770CDF8008000F068
:100BF00093FBE07A1827002818BF01204FEAC005B0
:100C000005F1040008BF10278DF80400002000F053
:100C10008BF8381D8DF8060000208DF8055000F087
:100C200083F82068217901AA04238DF80770CDF894
:100C3000008000F071FBE07A00280CBF2026012024
:100C4000C500281D8DF80400002000F06DF8301D4F
:100C50008DF8060000208DF8055000F065F820683A
:100C6000217901AA04238DF80760CDF8008000F0F7
:100C700053FB02B0BDE8F04170470000002808BFF8
:100C80007047437990F806C0994228BF591E6245C3
:100C900028BFACF10102D2B2032A09D8DFE802F082
:100CA00009020406403104E0143102E0543100E04E
:100CB000002170B582B00B01C27A01F0700C03F113
:100CC00008046FF07703002A08BF6FF07F0303EB7F
:100CD0000C0508BF0C01291D064600208DF80410E4
:100CE00000F022F8201D8DF8060000208DF8055038
:100CF00000F01AF8306831794FF47A7601AA0423AB
:100D00008DF80740009600F007FB02B0BDE8704088
:100D10007047000070470000042000F01BB800007E
:100D2000102000F017B80000B0B5044600F032F90A
:100D3000054640F20000C2F200000078611C18BFB6
:100D4000044400BF00F026F9401BA042FAD3B0BD16
:100D500002F040BE40F21441C4F201010A680242AE
:100D600014BF08607047FFF7F3BF00002DE9F04F94
:100D700082B00E68002E00F0FD8041F20042C4F205
:100D80000102042340F2004E904208BF03234FF6B5
:100D9000FF7CC4F2010E009300240123C1F2100C69
:100DA0004FF0000A4FF000094BE000BF41F2000293
:100DB000C4F20102009F904208BF022704F00C0316
:100DC0000F229A402BEA020207FA03F34FEA9A0530
:100DD0001A4346F825204E6840F20C45F202DEF830
:100DE000082054BF22EA080242EA0802C4F20105C0
:100DF000CEF808202A68B30254BF22EA080242EA69
:100E000008022A60B303DEF8042054BF22EA080275
:100E100042EA0802F303CEF80420DEF800204FF087
:100E2000010354BF22EA080242EA0802CEF8002079
:100E30000E680AF1010A36FA0AF204F1040400F01D
:100E4000998003FA0AFB16EA0B08F1D04E68664552
:100E500012DC122E56D8DFE806F0350B4D495555F9
:100E6000555555555555555555555545510000BF86
:100E7000D1F80C9046E000BF4FF6FF72C1F221029C
:100E800096420FDC0022C1F2110296421AD00022D3
:100E9000C1F21202964215D00022C1F221029642FE
:100EA00010D02FE00022C1F2220296420AD0002286
:100EB000C1F23102964205D00022C1F232029642BE
:100EC00020D100BF8A684AB1012A14BFC0F814B00B
:100ED000C0F810B04FF0080914E000BF4FF004094B
:100EE00010E000BFCA6802F104090BE04FF00009EE
:100EF00008E000BFCA6802F1080903E0CA6802F10D
:100F00000C0900BF02462646B8F5807F24BF043294
:100F1000203E17680F25B54027EA050509FA06F6B1
:100F200035431560CA79D2067FF582AF41F21803C6
:100F3000C4F202031A68AEF57E7642F001021A602E
:100F40001A6802F001020192019A2AF0030256F88F
:100F500002B040F60002C4F20102904208D040F60E
:100F60000042C4F2010290427FF420AF012725E73E
:100F7000002723E702B0BDE8F08F0000806808403A
:100F800018BF012070470000002A08BF0904016152
:100F90007047000042F6F430C2F20000006870476B
:100FA000002804BF01207047F0B581B0044690F8D6
:100FB0003D0028B9002084F83C00204600F09AFA51
:100FC000242084F83D002068016821F001010160BF
:100FD000016841F400410160016821F400410160B1
:100FE00000F06AFC636848F2A16CC0F2010C40F6A4
:100FF0000011C0F23D0163453CBF48F28041C0F2A0
:101000001E01884202D2012001B0F0BD4DF683617D
:10101000C4F21B31A0FB01122168970CD1F804E047
:101020004FF496762EF03F0545EA92454D607743A2
:1010300048F638160D6AC0F24106A7FB067625F081
:101040003F07634538BF960C721C3A430A62CA696F
:1010500048F2A0664CF6FF77C0F20106B34222EADE
:1010600007020BD801385B00B0FBF3F001306FF3DF
:101070001F30042898BF04201BE000BFA768013878
:1010800057B119277B43B0FBF3F001306FF31F30EA
:1010900070B100F5804007E003EB4303B0FBF3F0D1
:1010A00001306FF31F3018B100F5004001E000BFC0
:1010B00001201043C8610868D4E9072320F0C0006C
:1010C000104318430860886848F2FF3204F10C07A7
:1010D00090438CCF18431043A6698860C86820F0FD
:1010E000FF0038433043C860086840F001000860E2
:1010F00000202021206484F83D10206384F83E0005
:1011000001B0F0BD2DE9F04F83B01E4692468846EF
:101110000446FFF73FFF94F83D10202924D12168B1
:10112000054600BF886980071AD5FFF733FF401BCB
:1011300021681A28F6D388698007F3D5002020217A
:10114000206384F83D1084F83E00216C41F02001BA
:10115000216484F83C00022003B0BDE8F08F00BF9A
:1011600094F83C00012803D1022003B0BDE8F08FC1
:101170004FF0010984F83C900868C00703D1086863
:1011800040F0010008600868002720F40060086053
:10119000242084F83D000020CFF6FF702764E06231
:1011A00008F0FE08BAF1010F88BFD1464FF0A00A3F
:1011B0004FF0200B04E000BF01374F4500F0A28044
:1011C0000868002240F48070086020464FF001114A
:1011D0003346009500F0FAFD2168002856D1C1F889
:1011E0001080FFF7D7FE21684B694A6994F83D509B
:1011F000A02D054605D013F0020008BF12F4806050
:101200001AD084F83DB048690A68800742F4007239
:101210000A6045D46FF48060486100BF8869800728
:10122000CAD5FFF7B7FE401B21681A28F6D3886994
:101230008007F3D54AE000BFB6B100BFFFF7AAFEB2
:10124000401BB04288BF84F83DA021684A694869C4
:1012500094F83D30A02BD4D012F0020208BF10F455
:101260008060EBD0CDE700BFFFF794FE84F83DA08F
:1012700021684A69486994F83D30A02BC1D012F02A
:101280000202BED110F48060EED0BAE70868C00553
:1012900044BF4FF400702064032003B0BDE8F08F1A
:1012A000002002904869029088690290029888693B
:1012B00001E000BF806980071AD5FFF76BFE411B74
:1012C00020681A29F6D381698907F3D500202021E7
:1012D000206384F83D1084F83E00216C41F0200129
:1012E000216484F83C00012003B0BDE8F08F00BF0A
:1012F000202084F83D00002084F83C0003B0BDE8C5
:10130000F08F00BF202084F83D00002084F83C00CE
:10131000012003B0BDE8F08F2DE9F04383B01E46F5
:10132000174689460446FFF735FE94F83D102029FC
:1013300024D10546206800BF816989071AD5FFF7C7
:1013400029FE411B20681A29F6D381698907F3D544
:1013500000202021206384F83D1084F83E00216C99
:1013600041F02001216484F83C00022003B0BDE874
:10137000F08300BF94F83C10012903D1022003B090
:10138000BDE8F083012184F83C100168C90703D14E
:10139000016841F001010160016840F2020821F496
:1013A00000610160212184F83D10102184F83E1075
:1013B0000021216467626685618DC0F20108218584
:1013C000A8F10211E162E16A0A9E11F5803F18BF9F
:1013D00001291DD1016841F48071016020464FF060
:1013E000011100223346009500F0F0FC50B1206856
:1013F0000068C00544BF4FF400702064012003B0B2
:10140000BDE8F0832069B0F5804F07D1FE2015E0DC
:101410000829DFD0216B1229DCD0DFE7062000EAA3
:10142000D9102168F030086108F1060120463246E3
:101430002B4600F0B1FD0028E0D1FF20216800EA32
:10144000090008612046414632462B4600F0A4FDC3
:101450000028D3D100200290206841690291806960
:101460000290029806E000BF204631462A4600F06E
:101470004FFC18BB208D68B3204631462A4600F049
:10148000F7FDD8B9606A2168024612F8013B0B618A
:101490006262628D013A6285228D531E23854F69F7
:1014A0007F07E1D51B04DFD0437802300B61606217
:1014B000608D01386085901E2085D5E7206C04285A
:1014C0009CD12068016841F400710160012003B0E3
:1014D000BDE8F0832068016841F4007101602020BC
:1014E00084F83D00002084F83E0084F83C0003B0FE
:1014F000BDE8F08310B586B0006845F20041C4F243
:10150000000188424FF00000CDE90400CDE902005F
:1015100002D006B010BD00BF41F21804C4F20204AC
:10152000206802A940F008002060206800F0080050
:10153000019001984FF44070029012200390032014
:10154000059040F60040C4F20100FFF70FFC0420B4
:10155000C4F20100016841F0E06141F00201016064
:10156000606840F400106060606800F40010019052
:10157000019806B010BD000040F2000042F6F431C0
:10158000C2F20000C2F2000100780A68104408604C
:101590007047000080B542F20000C4F2020001680A
:1015A00041F010010160032000F092F80F2000F0DC
:1015B00005F800F027F8002080BD000070B540F26B
:1015C0000006C2F2000640F208013278C2F20001C1
:1015D0004FF47A730968B3FBF2F20446B1FBF2F1FF
:1015E000084600F07DFB0F2C4FF0010508D838B9F4
:1015F0004FF0FF3021460022002500F03DF87460D6
:10160000284670BD80B582B041F21800C4F20200D5
:101610000168002241F001010160016801F001014F
:1016200001910199416841F08051416040680F216A
:1016300000F08050009000986FF0010000F01CF85E
:101640000420C4F201000168022262F31A61016001
:1016500002B080BD002848BF704700F01F01012282
:1016600002FA01F11C2202EAD0004EF20012CEF280
:10167000000281507047000010B54EF60C5CCEF2AF
:10168000000CDCF80030C3F3022E8EF00704042CAB
:1016900028BF0424BEF103034FF0FF3E0EFA04F40A
:1016A00038BF0023A14399400EFA03F39A43114334
:1016B00000F00F0200F160430901043A03F56443AE
:1016C0006244002848BF02F10C03197010BD0000ED
:1016D0004EF60C51CEF200010A684FF6FF031A4095
:1016E00060F30A2242F0806040F0FD7008607047AD
:1016F000002804BF012070472DE9F04381B042F279
:101700000008C4F202080446D8F800000D4600F0B4
:10171000070081420CD9D8F8000020F007002843C8
:10172000C8F80000D8F8000000F00700A8426CD10B
:10173000206841F204098107C4F2020917D5410764
:1017400005D5D9F8001041F4E061C9F8001001078F
:1017500005D5D9F8001041F46051C9F80010D9F846
:101760000010A26821F0F0011143C9F80010C00771
:1017700042D1D8F8000000F0070085420CD2D8F81A
:10178000000020F007002843C8F80000D8F8000047
:1017900000F00700A84238D12068410707D5D9F8E2
:1017A0000010E26821F4E0611143C9F8001000075D
:1017B00008D5D9F80000216920F4605040EAC10042
:1017C000C9F80000D9F8002002F00C00082841F206
:1017D0000020C0F27A004DD146F28153C2F383411A
:1017E000C0F60003595CD20338D440F60010C0F2B2
:1017F0003D0048433EE000BF606859F8041C0228E1
:1018000008D0012826D1890306D4012001B0BDE803
:10181000F08300BF8901F8D5D9F8001021F0030149
:101820000843C9F80000FFF7B5FB064641F28837C8
:10183000D9F80000616800F00C00B0EB810F98D07F
:10184000FFF7A8FB801BB842F2D9032001B0BDE826
:10185000F08300BF8907D8D5DEE700BFD9F80020A4
:1018600046F27F53C2F34042C0F600039A5C4843FD
:10187000B0FBF2F0D9F8001046F26752C1F3031141
:10188000C0F60002515C40F2080220FA01F140F279
:101890000400C2F200000068C2F200021160FFF70B
:1018A0008DFE002001B0BDE8F083000040F208008A
:1018B000C2F200000068704740F2080041F20401E3
:1018C000C2F20000C4F202010068096846F27752D1
:1018D000C1F30221C0F60002515CC840704700000D
:1018E000002804BF012070472DE9F04182B0044672
:1018F000007841F20006C007C4F202060CD07068FE
:1019000000F00C00042840F081803068800303D58B
:101910006068002800F04681207880071BD5706839
:1019200010F00C0F09D0706800F00C00082840F08F
:1019300087807068C00300F183803068800703D51A
:101940002069012840F02E813068616920F0F8009C
:1019500040EAC10030602078000713D420784007A7
:101960002CD4E569002D00F01881706800F00C009F
:10197000082840F0A780012D40F00481012002B02A
:10198000BDE8F081A069002800F084800020C4F246
:1019900042200121C0F88014FFF7FCFA054600BF81
:1019A000706A800700F1B280FFF7F4FA401B02284A
:1019B000F6D9032002B0BDE8F08100BFF0695FEA0C
:1019C000C00808D4F06940F08050F061F06900F080
:1019D00080500090009847F20007C4F20007386872
:1019E000C00549D4386840F480703860FFF7D2FAF7
:1019F000054600BF3868C0053ED4FFF7CBFA401B50
:101A00006428F7D9032002B0BDE8F081706800F0C7
:101A10000C00082803D17068C0033FF576AF6168F9
:101A20003068002900F00C81B1F5A02F00F0008192
:101A3000B1F5803F40F01A8140F480301CE100BFD6
:101A40002069002840F20000C4F2422000F08880A3
:101A500001210160FFF79EFA054600BF306880074C
:101A60003FF572AFFFF796FA401B0228F6D9032024
:101A700002B0BDE8F08100BFE168306A002900F0E3
:101A80009D80052900F09280012940F0AF8040F050
:101A90000100B1E00020C4F242200021C0F880140F
:101AA000FFF778FA054600BF706A80077FF556AFEA
:101AB000FFF770FA401B0228F6D9032002B0BDE8F8
:101AC000F08100BF0027C4F2422700203866FFF7EC
:101AD00061FA022D05460DD13068800140F1DE80AB
:101AE000FFF758FA401B02284FF00300F4D902B068
:101AF000BDE8F081306880014FD5FFF74BFA401BFD
:101B000002284FF00300F5D9F1E700BF40F20800CA
:101B1000C2F20000006844F6D351C1F26201A0FB9A
:101B20000101480A019000BF00BF0198411E002832
:101B300001913FF413AF00BF0198411E00280191AD
:101B40003FF40CAF00BF0198411E002801913FF403
:101B500005AF00BF0198411E00280191E4D1FDE6C8
:101B600000210160FFF716FA054600BF30688007C4
:101B70007FF5F1AEFFF70EFA401B02284FF003008D
:101B8000F4D9B4E77068216A00F480328A4209D13E
:101B9000616A00F47010884204D1002002B0BDE8F0
:101BA000F08100BF012002B0BDE8F08140F00400E8
:101BB0003062306A40F001001EE000BF20F00100FA
:101BC0003062306A20F004003062FFF7E3F9054626
:101BD00041F28837306A800720D5FFF7DBF9401BD8
:101BE000B8424FF00300F5D981E700BF20F00100B3
:101BF0003062306A20F004003062FFF7CBF905460E
:101C000041F28837306A800708D4FFF7C3F9401BD8
:101C1000B842F7D9032002B0BDE8F081B8F1000F57
:101C20003FF59FAEF06920F08050F06199E600BF6B
:101C300040F480203060306840F480301CE000BF09
:101C400020F480303060306820F480203060FFF76E
:101C5000A1F90546306880037FF55EAEFFF79AF97B
:101C6000401B64284FF00300F4D940E720F4803093
:101C70003060306820F480203060FFF78BF9054633
:101C8000306880033FF548AEFFF784F9401B6428B5
:101C9000F6D9032002B0BDE8F08100BF206AB0F59C
:101CA000803F05D17168A26821F400311143716051
:101CB0007168626A21F47411114308437060012055
:101CC0003866FFF767F90446306880013FF565AF75
:101CD000FFF760F9001B02284FF00300F4D906E774
:101CE000411E0020B0EB116F1CBF012070474EF267
:101CF0001002CEF2000251604EF62351CEF20001E6
:101D0000F0230B700721906011607047FEE7000020
:101D100070B50368044653F8140F400711D40E46FB
:101D2000481C29D086BB00BF1868400527D4FFF7A0
:101D300031F9236853F8140F400737D51868400766
:101D4000F2D5002070BD00BF18684007F9D41868AC
:101D5000400514D418684007F3D4186840050ED421
:101D600018684007EDD41868400508D41868400783
:101D70004FF0000048BF70BD18684005E4D56FF40F
:101D800080601860042012E0154603E053F8140F39
:101D90004007D6D418684005F1D4FFF7FBF8401B84
:101DA0002368B042F2D958694007EFD420200021BF
:101DB0002022216384F83D2084F83E10226C1043D9
:101DC0002064012084F83C1070BD00002DE9F04132
:101DD000054600681E46144601F47F0201338FB2A7
:101DE00042D0DDF81880B2F5803F40F0878040692E
:101DF0003840C01BB0FA80F04009844240F0C880EF
:101E00004EB924E040693840C01BB0FA80F0400968
:101E1000844240F0BD80FFF7BDF8A0EB08012868C0
:101E2000B142EFD941693940C91BB1FA81F1490981
:101E30008C42E7D19BE000BF40693840C01BB0FA3C
:101E400080F0400984424FF0000040F0A280FFF78C
:101E5000A1F8286841693940C91BB1FA81F14909E3
:101E60008C42E9D183E000BFB2F5803F24D100BFAE
:101E700041693940C91BB1FA81F149098C4240F0EE
:101E8000878041693940C91BB1FA81F149098C4207
:101E900040F07E8041693940C91BB1FA81F149099E
:101EA0008C4275D141693940C91BB1FA81F14909A8
:101EB0008C42DDD06CE000BF81693940C91BB1FAAA
:101EC00081F149098C4263D181693940C91BB1FA5A
:101ED00081F149098C425BD181693940C91BB1FA52
:101EE00081F149098C4253D181693940C91BB1FA4A
:101EF00081F149098C42DFD04AE000BF8069384057
:101F0000C01BB0FA80F04009844241D146B923E0B9
:101F100080693840C01BB0FA80F04009844237D154
:101F2000FFF738F8A0EB08012868B142F0D98169C1
:101F30003940C91BB1FA81F149098C42E8D116E058
:101F400080693840C01BB0FA80F0400984424FF0ED
:101F5000000018BFBDE8F081FFF71CF82868816910
:101F60003940C91BB1FA81F149098C42E8D10020FE
:101F70002021286385F83D1085F83E00296C41F04A
:101F80002001296485F83C000120BDE8F08100BFF4
:101F90000020BDE8F0810000F0B581B00446006883
:101FA0001D4643698FB203EA0701B94202D10020FE
:101FB00001B0F0BD4169164601323CD0490512D44A
:101FC0007EB300BFFEF7E6FF411B2068B14203D994
:101FD00041693940B9422BD141693940B942E6D013
:101FE00041694905EED5016841F4007101606FF463
:101FF00080614161042000212022216384F83D207A
:1020000084F83E10226C1043206484F83C100120B8
:1020100001B0F0BD41693940B942C8D041694905B4
:10202000E1D4FEF7B7FF206841693940B942F1D0E9
:102030002020E0E741694905D5D441693940B942DA
:10204000B5D041694905CED441693940B942AED0D5
:1020500041694905C7D441693940B942A7D04169AE
:102060004905C0D441693940B942E3D19FE7000036
:1020700070B50368044653F8140F000611D40E46D9
:10208000481C29D086BB00BF1868400527D4FEF73E
:1020900081FF236853F8140F000637D5186800062F
:1020A000F2D5002070BD00BF18680006F9D418688A
:1020B000400514D418680006F3D4186840050ED4FF
:1020C00018680006EDD41868400508D418680006A2
:1020D0004FF0000048BF70BD18684005E4D56FF4AC
:1020E00080601860042012E0154603E053F8140FD6
:1020F0000006D6D418684005F1D4FEF74BFF401B0C
:102100002368B042F2D958690006EFD4202000219C
:102110002022216384F83D2084F83E10226C104375
:102120002064012084F83C1070BD0000FEE7000030
:10213000FEE70000000000000000000000000000BA
:10214000EFF30980BFF36F8F0D4B1A6820E9F00F92
:1021500010602DE908404FF0500080F3118802F024
:1021600093FC4FF0000080F31188BDE80840196827
:102170000868B0E8F00F80F30988BFF36F8F7047ED
:10218000F800002000000000000000000000000037
:10219000074B19680868B0E8F00F80F30988BFF3AF
:1021A0006F8F4FF0000080F311884EF00D0E7047D6
:1021B000F800002070B582B040F27005C2F2000550
:1021C000E86898B12869D0B1286A08B3A86840B314
:1021D000686968B3686A90B3A86AC8B3A869002838
:1021E0003FD0E86900285CD143E000BF0C201021FB
:1021F000002202F067FDE86028690028E4D1012090
:102200002421002202F05EFD2861286A0028DDD129
:1022100001202421002202F055FD2862A868002830
:10222000D6D1012002F018FDA86068690028D1D13C
:10223000012002F011FD6861686A0028CCD10120FC
:102240000021032202F03EFD6862A86A0028C5D181
:1022500001200021032202F035FDA862A8690028B0
:10226000BFD101200021032202F02CFDA861E86902
:10227000B8B943F2A970C0F60000009045A06421EF
:1022800001220023002603F041FDE86148B1044625
:1022900003F056FB0246204601210023009603F07E
:1022A000ADFD00F0ABF8E868002855D0286900289B
:1022B00052D0686A00284FD0A86A00284CD06869BC
:1022C000002849D0A869002846D0E869002843D0F2
:1022D00044F2C95000240426C0F6000031A14FF496
:1022E00080720023CDE9006403F0AEFA012839D1F1
:1022F00044F209200526C0F600002DA14FF480729B
:102300000023CDE9006403F09FFA012830D143F6A1
:102310006D5000240326C0F6000029A1C02200232E
:10232000CDE9006403F090FA012827D143F6DD607F
:102330000126C0F6000025A14FF480720023CDE9EC
:10234000006403F081FA01281ED1002002B0BDE82C
:10235000704002F0C5B900BFEFF3108072B600BF45
:10236000FEE700BFEFF3108072B600BFFEE700BFCC
:10237000EFF3108072B600BFFEE700BFEFF31080EE
:1023800072B600BFFEE700BFEFF3108072B600BF69
:10239000FEE700BF73616D706C655F74696D657297
:1023A0000000000073656E736F725F7461736B0081
:1023B00070726F63657373696E675F7461736B00CE
:1023C000616C6572745F7461736B00006469737033
:1023D0006C61795F7461736B0000000080B5FFF77A
:1023E000CBF803F09DFA012808BF80BDBDE880400E
:1023F00002F01ABC70470000FEE7000010B5FEF7BF
:10240000C9FD40F27004C2F2000400214FF4807252
:10241000C4E90B01A28604F1380C636B8CE80B0055
:10242000A4F84C2094F84120C4E91101002A84F852
:102430004E10C4E9140184F8592084F85A3008BFBA
:10244000002907D002B3032A0CD00020606584F86D
:102450005A0008E040F20310A4F859000020C4F22A
:10246000A0106065022084F8580000F06FF804F1B5
:102470005C0001F099FA0020A06684F86C002067E7
:1024800084F8740010BD00BF0120002806D102208E
:10249000A4F8590000206065E5E700BF18BF0220DE
:1024A000E1E7000010B540F2FC10C2F20000002489
:1024B00004604460047244728472C46004610475F0
:1024C0004475847501F036FAFFF7F0F94DF6836133
:1024D000C4F21B31A0FB0101880C40F27001C2F272
:1024E000000148604EF6FC50CEF200000168002268
:1024F00041F08071016041F20000CEF200004460C2
:10250000016840F6004441F00101C4F20104016099
:1025100020462021FEF738FD204610210022FEF73C
:1025200033FD204640210022FEF72EFDA4F58064F5
:10253000204602210022FEF727FD20460821002226
:10254000FEF722FDBDE8104000F07AB870B540F209
:102550007006C2F20006706C316D40F204358142A3
:1025600088BF084696F84D10F0654A1E96F8590047
:10257000D2B2D3000024C0F20535042A38BF25FAB0
:1025800003F4431EDBB2E2B2DC00E540EDB2AA4246
:102590000A4638BF0246042B28BF0A4686F8652043
:1025A00096F84C2096F85830551E5C1EB5FA85F505
:1025B000B4FA84F46D096409022B18BF45EA0403D8
:1025C000022A08BF134641EA0002120686F8643068
:1025D0000AD1B56C746D2846214603F0D6FC00285C
:1025E00018BF2C4609E000BF090605D0C0B2746DC3
:1025F000002818BF002400E0B46C96F85A0096F842
:102600004E10C0B20843346618BF012086F8660039
:1026100070BD000070B504680D682046294603F0BF
:102620009FFC064600282046294618BF012603F0D5
:10263000ACFC002818BF4FF0FF36304670BD0000DC
:10264000B0B582B03220FEF76FFB40F21420C2F228
:1026500000004E2105221423FEF754FD044658B114
:1026600040F2E800C2F2000000210170B4FA84F0E8
:10267000400902B0B0BD00BF40F2E805C2F200055B
:1026800040F214214FF0020C281DC2F200014E222C
:102690001023CDF800C0FEF781F9012046F21B613E
:1026A0002870C0F60001002000F0CCF946F2096164
:1026B000C0F60001012000F0C5F9B4FA84F0400929
:1026C00002B0B0BD40F2E802C2F200021278012A64
:1026D00018BF70472DE9F04F91B00C464FF02031F4
:1026E000CDE90C11CDE90A11CDE90511CDE90711AC
:1026F0000021202742F220098DF838108DF824108F
:102700008DF84270ADF8409050B3417A03292FD034
:10271000012929D081BB4168064608464FF07C510B
:1027200003F0AEFB03F03AFD44F6D351C1F262016F
:10273000A0FB011291094FF47A7201FB120346F2D9
:102740002962C0F6000210A80421FDF757FD9DF88C
:1027500040109DF841309DF8422030460FE000BF08
:102760002D222D232D210AE04E214F23202206E089
:102770003C213223302202E045215222522343F2EF
:10278000531541EA03214FF00058C2F23A0541EADD
:1027900002468DF84270ADF840904CB3617A03293F
:1027A0002ED0012928D079BB6168074608464FF032
:1027B0007C5103F065FB03F0F1FC44F6D351C1F208
:1027C0006201A0FB011291094FF47A7201FB12031E
:1027D00046F22962C0F6000210A80421FDF70EFDA2
:1027E0009DF840109DF841309DF8422038460EE09B
:1027F0002D222D232D210AE04E214F23202206E0F9
:102800003C213223302202E045215222522341EA68
:10281000032141EA024106F10057414405F5807564
:102820004FF02009039702918DF840908DF8139096
:1028300050B3417AA1B3084601F088F80278AAB3F0
:1028400090F801A0BAF1000F34D08178A1B390F8CC
:1028500003B08DF84010BBF1000F2DD090F804802C
:10286000B8F1000F00F0D0804379002B00F0D88041
:1028700090F80690B9F1000F00F0DA80C17911B339
:102880000DF113000AE000BF10A84FF02D0A2D2211
:1028900020234FF020084FF0200B2D21017012E073
:1028A000007A01F067F80278002AC9D14FF0200AB7
:1028B000202201E04FF0200A4FF0200920234FF0A2
:1028C00020084FF0200B20278DF812708DF8117022
:1028D000CDE9003254B3607AD0B301F037F890F804
:1028E00000E0BEF1000F3BD090F801C0BCF1000F3A
:1028F0003ED08378002B41D0C4788DF81230002C64
:1029000040D00679002E00F085804279002A00F040
:102910008B808779002F00F08F802946C579002DA4
:1029200000F08E800DF111000BE000BF29460DF183
:1029300012004FF02D0C4FF02D0E202220262024C7
:102940002D2505709DF812309DF811000D461EE0F2
:10295000207A01F00FF890F800E0BEF1000FC3D12B
:10296000202020234FF0200C4FF0200E0BE000BF62
:10297000202020234FF0200C05E000BF2020202342
:1029800001E000BF2020202720222026202443F21F
:102990005311C2F23A010A9103998DF82300CDE94F
:1029A0000B15029900200D9101998DF817B041EA9D
:1029B0000A259DF84010ADF814508DF816100099B6
:1029C0008DF818808DF819109DF813108DF81A9055
:1029D0008DF81B104EEA0C21ADF81C100AA98DF8D9
:1029E0001E308DF81F408DF820608DF821208DF865
:1029F000227000F027F805A9012000F023F811B09B
:102A0000BDE8F04F704700BF4FF0200920234FF082
:102A1000200858E72020202720222026B7E700BFE3
:102A20004FF0200920234EE7202020272022AEE768
:102A30004FF0200947E700BF20202027A7E700BF6D
:102A4000202083E72DE9F04F87B002464FF0203079
:102A5000CDE90300CDE90100002000298DF8140024
:102A600041D00B78002B3ED048788DF80430D0B39D
:102A70008B788DF80500B3B3C8788DF8063090B325
:102A80000B798DF8070073B348798DF8083050B38F
:102A90008B798DF8090033B3C8798DF80A3010B3FB
:102AA0000B7A8DF80B00F3B1487A8DF80C30D0B169
:102AB0008B7A8DF80D00B3B1C87A8DF80E3090B1D5
:102AC0000B7B8DF80F0073B1487B8DF8103050B13F
:102AD0008B7B8DF8110033B1C87B8DF81230002844
:102AE00018BF8DF8130040F2E80BC2F2000B0BF197
:102AF00004000021FEF7C2F84FF0FF360DF1040884
:102B00004FF47A790DF1180A08EB060040789BF82B
:102B10000F30020120F00F0102F10807002B14BF53
:102B200008310701481D8DF8180000204C1C7D1C41
:102B3000FEF7FAF8781D8DF81A0000208DF819407C
:102B4000FEF7F2F8DBF804009BF808105246042365
:102B50008DF81B50CDF80090FEF7DEFB01360F2EEE
:102B6000D2D107B0BDE8F08F2DE9F04790B0FEF765
:102B700011FD06AC201D2421FDF731FE0220069038
:102B800001200A9010200B90002520460D95FEF79D
:102B9000A7FE28B1EFF3108072B600BFFEE700BFBA
:102BA0000F20CDE9010501A80021CDE903550595C8
:102BB000FEF79EFD20B1EFF3108072B6FEE700BF76
:102BC000002741F21800CDE90877CDE90677C4F275
:102BD0000200016840F6000841F00401016001684C
:102BE000C4F2010801F00401019101990168002279
:102BF00041F00801016000680A2100F0080001901E
:102C0000019840460A24FEF7BFF908F58066304671
:102C1000702100224FF07009FEF7B6F906AD069458
:102C20004FF0010A022440462946CDE907A709943E
:102C3000FEF79CF81420CDE9060740462946089483
:102C4000FEF794F830462946CDE9069ACDE9087496
:102C5000FEF78CF8042000260690C1F231064046AB
:102C60002946CDE907640994FEF780F81020CDE9E4
:102C7000060640462946CDE90844FEF777F80820C5
:102C800006210022FEF7F8FC0820FEF7E3FC0A20EC
:102C900006210022FEF7F0FC0A20FEF7DBFC40F2E2
:102CA000FC10A8F53441C2F2000040F8181F48F2A9
:102CB000A061C0F201014FF48042C0E90117C0E9F0
:102CC0000372C0E90577C0E90777FEF769F928B113
:102CD000EFF3108072B600BFFEE700BFFFF7E2FB24
:102CE00000F058FE0D480DF11C0C06900BA0071DBE
:102CF0008ECFD0E905608CE88E00CDE90B6006A888
:102D0000002100F01FF840F27001C2F200010860DB
:102D100000F012F8002010B0BDE8F087B46500089C
:102D2000B521000800000000000000008000000045
:102D3000000000000000000080B501F025FE00202A
:102D400080BD0000B0B584B043698E4693B18469FC
:102D500084B10589D0E9001C026928B2843D18BFFE
:102D6000C51CCDE9005360467346029402F09CFDF9
:102D700004B0B0BD0589D0E90013028A28B2843DB1
:102D800018BFC51C03AC18467346CDE9005402F0C9
:102D90005BFD0399012818BF0021084604B0B0BDAF
:102DA000F0B581B040F2F804C2F200040E46676A42
:102DB00021680546081D00F0C7FF18B1681C0CD03B
:102DC00016E000BF20680121C06A626801FA00F0C5
:102DD00022EA00006060681C0AD14EB154F8500B22
:102DE000011D204601B0BDE8F04001F009B900BF67
:102DF0002068ED19456007D3606B2168043101B08C
:102E0000BDE8F04001F0CAB8206B2168043101F040
:102E1000C5F8206A854238BF256201B0F0BD0000C8
:102E20002DE9F041044601F0F9F840F2F806C2F24B
:102E30000006306940F22835013030613068C2F256
:102E4000000548B17069002840D13068E16AC06A65
:102E5000884298BF346039E034603069012835D148
:102E6000284601F08BF805F1140001F087F805F110
:102E7000280001F083F805F13C0001F07FF805F12E
:102E8000500001F07BF805F1640001F077F805F1DE
:102E9000780001F073F840F2D418C2F200084046FE
:102EA00001F06CF808F11407384601F067F806F1F4
:102EB000640001F063F806F13C0001F05FF806F1F0
:102EC000500001F05BF8C6F8308077637068B16835
:102ED00001220131B160E16A8A401043706001EB68
:102EE000810005EB8000211D01F08AF801F0BAF89D
:102EF000706988B13068E16AC06A884228BFBDE85D
:102F0000F0814EF60450CEF200004FF08051016087
:102F1000BFF34F8FBFF36F8FBDE8F08140F2F8052C
:102F200040F228364EF60458C2F20005C2F20006FE
:102F3000CEF200084FF0805703E000BF204601F0BA
:102F4000A9F8E868D0B101F069F8A86CC468201D40
:102F500000F0FAFE286901382861E8680138E86065
:102F600001F080F894F851000228EAD00128E5D059
:102F700070B9206B01F08EF8E0E700BF30680228DE
:102F8000DFD3C8F80070BFF34F8FBFF36F8FD8E760
:102F90004FF0500080F31188BFF36F8FBFF34F8F56
:102FA000FEE700002DE9F047DDE909878246386B2E
:102FB000089C00EB820004389946002920F007069F
:102FC00044D0087887F83400D8B3487887F83500BB
:102FD000B8B3887887F8360098B3C87887F8370090
:102FE00078B3087987F8380058B3487987F83900FA
:102FF00038B3887987F83A0018B3C87987F83B0066
:10300000F8B1087A87F83C00D8B1487A87F83D00D3
:10301000B8B1887A87F83E0098B1C87A87F83F003F
:1030200078B1087B87F8400058B1487B87F84100A9
:1030300038B1887B87F8420000281CBFC87B87F81E
:103040004300002087F8430003E000BF002087F81A
:1030500034000025381D062C28BF0624FC62C7E971
:10306000114500F097FF07F1180000F093FF84F07E
:103070000700B861304651464A463F617F62FD64B1
:1030800087F8505000F080FBB8F1000F386018BF8F
:10309000C8F80070BDE8F08700294BD02DE9F04F4B
:1030A00081B0DDE90A47994690460E46824600F017
:1030B000B5FF40F2701BC2F2000BDBF8000018BB3A
:1030C0000BF11404204600F059FF0BF128052846A7
:1030D00000F054FF40F2682240F2E023CBE90245C1
:1030E0000A9C0025C2F20002C2F200030A200C2151
:1030F000009501F027FECBF8000028B146F22F61C1
:10310000C0F6000101F00AFA00F0ACFF381DC7F864
:1031100000A0C7E906693C6200F03CFFB8F1000F6F
:1031200005D097F8240040F0040087F8240001B08F
:10313000BDE8F08F4FF0500080F31188BFF36F8F20
:10314000BFF34F8FFEE7000006480068006880F379
:10315000088862B661B6BFF34F8FBFF36F8F00DF91
:1031600000BF000008ED00E081B00020009040F2B8
:103170000C00C2F2000000684FF0500181F311888A
:10318000BFF36F8FBFF34F8F013007D0FEE700BF53
:10319000009830B9009820B9009810B9009800281C
:1031A000F6D001B07047000086B040F2701AC2F24B
:1031B000000A0DF10C09EB46DAF8080005681DB1AC
:1031C000C068046801E000BF002401F055FC02F073
:1031D000B7FBDAF810100646884220D3002DCAF853
:1031E000106051D0B4424FD802F01AFDDAF808004E
:1031F000C068C7683D1D284600F0A6FD97F824006A
:10320000410745D400F0FA0087F8240082E000BFAF
:103210007860DAF8080029463F6100F0BFFEDAF86E
:103220000800016831B3C068C76804683D1D2846BE
:1032300000F08AFD396A3846884797F8240040072D
:10324000EDD5B8692044A042E2D8DAF800000028A1
:1032500000F03881002003A991C102F061FBDAF887
:10326000000049460022002301F0D8FD0028D6D1F5
:1032700028E100BFDAF80C10CAF81060CAE90210A1
:1032800002F0CEFC4FE000BF65B1002210E000BFAD
:10329000B8693F610119B14279601DD90AF108008E
:1032A0001FE000BFDAF80C000068B0FA80F04209B5
:1032B000DAF80000A11B01F05DF902F0B1FC90BB4F
:1032C0004EF60450CEF200004FF080510160BFF383
:1032D0004F8FBFF36F8F26E0311B814206D20AF178
:1032E0000C000068294600F059FE13E0DAF80000EF
:1032F000002800F00581002003A991C102F010FB15
:10330000DAF8000049460022002301F087FD00287A
:1033100000F0F680396A3846884704E00AF10C026A
:10332000106800F03BFEDAF800005946002201F078
:10333000D7FF00283FF440AF00980028F3D4029E46
:10334000706910B1301D00F0FFFC02F0F9FADAF8F4
:103350001010074688420CD30098CAF8107009284C
:103360003DD9E0E76860DAF8080021462D6100F0F9
:1033700015FEDAF80800016841B3C068C568D0F8E6
:1033800000802C1D204600F0DFFC296A2846884773
:1033900095F824004007ECD5A86940444045E1D8A1
:1033A000DAF80000002800F083800020CDE903084F
:1033B000059502F0B5FADAF800004946002200232C
:1033C00001F02CFD0028D4D172E000BFDAF80C1017
:1033D000CAE902100098CAF810700928A3D8DFE8DB
:1033E00000F005050557415F0505574196F8240093
:1033F000B26940F00101019886F824101318314693
:1034000041F8043FBB42366108D987420AF10802FD
:10341000BFF486AF834205D282E700BF381A9042DC
:10342000FFF47CAF316A3046884796F824004007A5
:103430007FF579AFDAF8000000284DD00198B16926
:10344000059608440021CDE9031002F069FADAF884
:10345000000049460022002301F0E0FC00287FF430
:1034600062AF39E096F8240040F00101019886F837
:1034700024100028B06139D0384431460AF10C02DA
:1034800041F8040F3661B84288BF0AF1080247E7E5
:1034900096F8240000F0FE0086F8240043E700BF01
:1034A00096F824008107F5D4304600F0F3FD3AE7A2
:1034B0004FF0500080F31188BFF36F8FBFF34F8F31
:1034C000FEE700BF4FF0500080F31188BFF36F8F0D
:1034D000BFF34F8FFEE700BF4FF0500080F311881D
:1034E000BFF36F8FBFF34F8FFEE700BF4FF0500069
:1034F00080F31188BFF36F8FBFF34F8FFEE700BFDC
:103500004FF0500080F31188BFF36F8FBFF34F8FE0
:10351000FEE70000F0B581B0044600F07FFD94F9AD
:103520004560012E0FDB04F1240500BF286850B16F
:10353000284602F03BFB002818BF01F05FF9F0B20B
:10354000013E0128F2D8FF2684F8456000F08AFD8C
:1035500000F064FD94F94470012F0EDB04F11005B6
:10356000286850B1284602F021FB002818BF01F05E
:1035700045F9F8B2013F0128F2D884F8446001B05F
:10358000BDE8F04000F06EBD70B5044601F074FA7D
:1035900040F2AC1CC2F2000CDCF8042012B19CF822
:1035A000000020E040F2F430C2F20000420700F5D3
:1035B000205200F1070122F0070218BF21F0070096
:1035C0000021A2F10803CCE90601CCF8043042E95D
:1035D0000211DCF80420191AC0E900210120CCE90D
:1035E00002118CF800000025002C4FF0000148BFAC
:1035F00001215AD0084058D124F0070000F11003EF
:10360000600708BF04F10803DCF80800591E814276
:103610004BD2604650F818EFDEF804509D422CD291
:10362000DEF80010C1B174464D689D4218D20E6894
:10363000B6B175689D4217D23068A8B145689D4201
:1036400016D20468A4B165689D4215D22168A646C9
:103650000029E9D111E000BF0CF118000DE000BF16
:103660008E46204609E000BFB646084605E000BF8A
:103670008646304601E000BFA646964514D0026853
:10368000DEF80040E91A112904604FD30EEB030560
:10369000680719D04FF0500080F31188BFF36F8F87
:1036A000BFF34F8FFEE700BF002502F0B9FA6807AD
:1036B0005CD04FF0500080F31188BFF36F8FBFF3E1
:1036C0004F8F00BFFEE700BF0CF118006960CEF815
:1036D000043000BF0168A9420AD20868A8420BD290
:1036E0000168A94204D208680B46A842F2D304E05C
:1036F0000346084601E000BF0B465C6869681E1976
:10370000AE4202D121441D4659606C18844201D05A
:10371000044607E0DCF80440A04203D0D0E90040B2
:1037200008446860AB422C6018BF1D60DEF80400DE
:10373000DCE9021302F10805091A9942CCF80810D5
:1037400038BFCCF80C109CF8001000294FF0000195
:1037500018BF40F00040CEE90010DCF81000013046
:10376000CCF8100002F05CFA6807A2D1284670BDC0
:1037700040F2F800C2F20000016819B101688A6CD9
:1037800001328A6400687047034643F26910C0F64C
:1037900000004FF0807C21F0010103E90310A3F148
:1037A000400043F8202C704740F27000C2F2000045
:1037B0008069002808BF704700210022002301F023
:1037C0002DBB0000012800F2B480002900F0B18078
:1037D0004A7A002A18BF70472DE9F04385B040F2BD
:1037E000B432C2F2000202EB4014277F4D688946D2
:1037F000C7B1A6690021C4F20C31304602F0BEFB0D
:1038000080B90021C4F24821284602F0B0FB48B933
:10381000607F0130C1B20129607705D8C9F8046022
:10382000012081E0002060770026C4F2A01628461F
:10383000314602F09CFB28B9C9F8046040F201301F
:1038400072E000BF0021C4F21641284602F096FB48
:1038500030B9002F3CD0A069C9F80400012063E012
:10386000607D43F2343144F8205001304143090C6B
:10387000267D01EB8101401A6D46042E60759CBFC8
:1038800001362675B20028462146FCF776FF42F243
:103890001563C0F60003284631460422FCF7E5FE16
:1038A000207D217F00F0FE0055F81050B9B3D4F808
:1038B00018802846414602F0D9FD0021C4F2F021CB
:1038C000064602F05BFB48B90021C4F2F0210FE08C
:1038D0000020C9F804004FF4007025E00021CCF26C
:1038E000F021304602F043FB30B90021CCF2F02148
:1038F000404602F0C5FA054646F26661C3F62671F7
:10390000404602F0E7FC43F233310646C3F6B361AA
:10391000284602F0DFFC314602F0B2FA05460120EB
:10392000A5612077C9F80450A9F8080005B0BDE8E2
:10393000F043704740F2B430C2F2000000218182AF
:10394000816181838186816381877047042899BF63
:1039500003A151F8200046F2DA50C0F6000070478B
:10396000CD65000801660008F4650008D065000810
:10397000E9650008022899BF03A151F8200046F22A
:10398000DA50C0F600007047C0650008C565000841
:10399000E265000842F6F830C2F200000021C0F8EB
:1039A0000710C0E900117047002808BF7047EFF307
:1039B000108CEFF3108272B6D0E90023806842F6D3
:1039C000F831C2F20001C1E9002388608CF310884D
:1039D00070470000F0B581B0042803D0102866D1EC
:1039E000012400E0002440F2FC1144EA4400C2F249
:1039F000000101EB8005A87A002858D040F270063B
:103A0000C2F20006706841F20007CEF20007C0B9AA
:103A1000FDF74CFF4DF68361C4F21B31A0FB0101A1
:103A2000880C70604EF6FC50CEF20000016841F048
:103A30008071016000207860386840F001003860D3
:103A400070687968B1FBF0F746F29450C0F6000058
:103A500000EB0410818940F60000C4F20100FDF77C
:103A60008DFA012804D101202F60287201B0F0BD29
:103A7000287AE0B1002000902968791A69602872DC
:103A80000120687206EB8400406A80B1694601F04B
:103A9000C9FB009858B14EF6FC50CEF200004FF032
:103AA000805140F8F81CBFF34F8FBFF36F8F01B008
:103AB000F0BD00002DE9F04F81B0054601284FF020
:103AC000000000F212810C46002900F00E81FDF783
:103AD00061FA40F270094FF48071C2F2000921814D
:103AE00009EB85014A6A0146002A4FF00000C4E94B
:103AF000001000F0FA8040F2FC1105EB4500C2F224
:103B0000000101EB800A09EB850600BF706A002105
:103B100001F006FD0128F9D0FDF73CFAD9F81400B0
:103B200028B1022101F0FCFC012840F09C8040F605
:103B30000008C4F201084FF0000B012041F2040715
:103B4000CAF804B08AF808B08AF809B08AF80A00FE
:103B5000404602210022CEF20007FDF715FA40464A
:103B600008210022FDF710FAD9F80410E1B9FDF799
:103B70009DFE4DF68361C4F21B31A0FB0101880C50
:103B8000C9F804004EF6FC50CEF20000016841F086
:103B900080710160C7F800B057F8040C40F00100D4
:103BA00047F8040CD9F80410386849003A68121A2A
:103BB0008A420BD23A68121A8A4207D23A68121A1B
:103BC0008A4203D23A68121A8A42EFD346F29450DC
:103BD000C0F6000000EB051085884046294601220A
:103BE000FDF7D2F9D9F80410E1B9FDF75FFE4DF603
:103BF0008361C4F21B31A0FB0101880CC9F80400E9
:103C00004EF6FC50CEF20000016841F08071016078
:103C10000020386057F8040C40F0010047F8040C0D
:103C2000D9F80410386801EB810149003A68121A8A
:103C30008A420BD23A68121A8A4207D23A68121A9A
:103C40008A4203D23A68121A8A42EFD34046294682
:103C50000022FDF799F9D9F8140020B100210022C3
:103C6000002301F0DBF89AF80A00002840D0706ABF
:103C70003C2101F055FC012844D1FDF78BF920606F
:103C80009AF80900002851D0DAF8040000284DD035
:103C9000DAF8040002F0A2FA0021C4F2682102F06E
:103CA00087F9002105466060002602F059F90028D6
:103CB00018BF012000212072C4F22011284602F012
:103CC00064F930B90021C4F21641284602F056F9D1
:103CD00010B9666026720226002066728AF8080013
:103CE0008AF809008AF80A00012001B0BDE8F08FC7
:103CF00002206072FDF74EF92060002001B0BDE89F
:103D0000F08F00BF00204FF480718AF80A008AF813
:103D100008008AF8090021816060FDF73BF901463F
:103D20000020216001B0BDE8F08F00BF00204FF4FB
:103D30000071606021818AF808008AF809008AF819
:103D40000A0001B0BDE8F08F0169D0E90132D1F875
:103D500004C09A608445536008BF4A600022026133
:103D60000868013808600868704700008AB040F2AF
:103D70007005C2F20005D5E91660D5E911C105F15B
:103D80004C0740F600448CCFD5F860E0CDE90660E2
:103D9000686E44F6D35B48F21F59C4F20104CDE9C2
:103DA00001C103A94FF42F7AC1F2620BC5F2EB19DE
:103DB0000DF104088CC1CDE908E00CE00122204699
:103DC0001021FDF7E1F8204640213246FDF7DCF8EE
:103DD000052000F035FC286918B14146052201F0A4
:103DE0007FFAFDF7D7F89DF825100746A1B1032902
:103DF0002AD0A7FB0901C1F380169DF80D0040BB36
:103E00009DF80C00022826D0012812BF0022A7FB33
:103E10000B01C1F3401225E09DF82400022813D0C5
:103E2000012839D147F29130C5F69F50A7FB000118
:103E3000080A00FB1A700026782838BF01269DF872
:103E40000D0030B9DCE700BF01269DF80D00002809
:103E5000D6D0032802D1012204E000BFA7FB09014C
:103E6000C1F3801220462021FDF78EF89DF819003D
:103E700030B10328A2D0A7FB0901C1F380129EE74D
:103E80009DF81800022899D0012812BF0022A7FB34
:103E90000B01C1F3401292E700269DF80D000028A7
:103EA000D7D1ADE742F60463C2F20003036042F6E5
:103EB0000440C2F2000008608020106070470000DB
:103EC00043F29803C2F20003036042F69860C2F224
:103ED0000000086080201060704700002DE9F04766
:103EE00086B040F27006C2F20006306A00283FD069
:103EF0004FF001084FF000090DF10C0A6D4603E088
:103F00004FF4967000F09CFBB06820B10A2101F0DC
:103F100007FB0128F4D106F144078FCFB46DCDE93A
:103F20000412CDE90240CDE90037FDF733F80399DB
:103F3000411AB1F5487F82BF0390ADF81580CDF8E6
:103F400010900099411AB1F5487F82BF0090ADF8FA
:103F50000980CDF8049050462946FEF7B3FBB068BF
:103F60000028CDD000210022002300F057FFC7E732
:103F7000002006B0BDE8F04700F0B2BB4FF0FF31C3
:103F8000024642F8081F00214260C0E90322016096
:103F900070470000002101617047000010B5D1F8A2
:103FA00000C01CF1010213D000F10804626813681C
:103FB000634511D853681C68644511D85A68146861
:103FC00064450FD854682368A6466345EED90BE0D4
:103FD0000269D2F804E007E09646224604E000BFFA
:103FE0009E4601E096461A46C1F804E0CEF8081055
:103FF0008A605160086101680131016010BD0000F4
:10400000D0F800C0436808619A68C1E90132516084
:1040100099600CF101010160704700004FF0500001
:1040200080F31188BFF36F8FBFF34F8F40F20C0006
:10403000C2F2000001684A1C026009B1704700BF6B
:104040004EF60450CEF200000068000608BF70472C
:104050004FF0500080F31188BFF36F8FBFF34F8F85
:10406000FEE7000040F20C00C2F20000016839B126
:104070000139016018BF7047002080F31188704734
:104080004FF0500080F31188BFF36F8FBFF34F8F55
:10409000FEE7000070B5002808BF70BD40F2AC1408
:1040A000C2F20004217850F8042C002918BF4FF008
:1040B000004111420ED0A0F108052B68A3B14FF0CA
:1040C000500080F31188BFF36F8FBFF34F8F00BF95
:1040D000FEE700BF4FF0500080F31188BFF36F8FF1
:1040E000BFF34F8FFEE700BF22EA010140F8041C36
:1040F000064600F0C1FC56F8040CA1680144A1601A
:1041000004F118010B68AB420AD21968A94213D214
:104110000B68AB4204D219681A46A942F2D301E0F7
:104120000A4619465368D618AE420AD02B188B425D
:104130000DD00B4612E000BF1A465368D618AE42A7
:10414000F4D11844154650602B188B42F1D16368A6
:10415000994203D0D1E9003108446860AA422B603B
:1041600018BF1560606901306061BDE8704001F002
:1041700057BD00004EF21000CEF200000021016099
:10418000816040F20801C2F20001096844F6D3528E
:10419000C1F26202A1FB02124FF0FF3101EB92115A
:1041A000416007210160704740F2CC10EFF30581B8
:1041B0001029C2F2000011D34EF2F032CEF200020A
:1041C000895C0278914209D24FF0500080F3118847
:1041D000BFF36F8FBFF34F8FFEE700BF4EF60C515A
:1041E000CEF200010968406801F4E061814298BFA5
:1041F00070474FF0500080F31188BFF36F8FBFF30B
:104200004F8F00BFFEE700002DE9F04F95B040F260
:10421000700AC2F2000ADAF80C00002800F0788177
:10422000DAF81000002800F07381FEF7E7F80DF1CE
:10423000440808F10400049008A800F10C011830AB
:10424000039102900AF1380001900AF13C000090BD
:10425000DAF80C0041464FF0FF3201F041F8012836
:10426000F6D19DF844B0BBF1010FF1D8049A38247F
:104270009168D2E900020791CDE90502BBF1000F78
:1042800008BF2C24019E08BF0AF12C069DF81D00D2
:104290000AEBCB014FF0500508BF4425012801F17E
:1042A00068070FD050B9584605A9FFF78BFA9DF85B
:1042B0001D00032800D070B90598386000203871BF
:1042C00009E000BF387901303871002006904FF4C2
:1042D0008070ADF81C0005AA07CABBF1000F07C625
:1042E0005AF804004FF054064AF80500009808BF39
:1042F0000AF13000D0F800900AF1410008BF4826CA
:104300004AF80690BBF1000F08BF0AF1350090F89B
:1043100000804FF059050AF1400008BF4D250AF80A
:104320000580BBF1000F08BF0AF1340000784FF0A0
:104330005A0408BF4E24B8F1000F0AF8040013D144
:1043400000214846C4F2A01101F011FE60B903201B
:104350000AF805000020C4F2A0104AF80600012067
:104360000AF8040008E000BFB8F1000F00F0A480D4
:10437000B8F1030F40F0B28002200DF1440858213B
:10438000BBF1000F08BF4C21DAF84420DAF85030B6
:104390000AF80100934288BF1A469AF84D10CAF8ED
:1043A0005C204A1E9AF85900D2B2D300042A4FF07A
:1043B000000240F20436C0F2053638BF26FA03F296
:1043C000431EDBB2DF0026FA07F7D2B2FFB2BA42D1
:1043D0000A4638BF0246042B28BF0A468AF86520E1
:1043E0009AF84C209AF85830571E5E1EB7FA87F795
:1043F000B6FA86F67F097609022B18BF47EA06034C
:10440000022A08BF134641EA000212068AF8643005
:104410000CD1DAF84860DAF854703046394601F0C9
:10442000B4FD002818BF37460EE000BF090609D0CA
:10443000C0B2DAF8547000284FF0000018BF0746E9
:1044400002E000BFDAF848709AF85A109AF84E2045
:10445000C9B20AF15C001143CAF8607018BF0121AB
:104460008AF86610FFF7A0FA0AF144078FCF0DF122
:10447000200CDAE916658CE807000398DAF860404A
:10448000DAF86410029AC0E900378660DAF81000A2
:10449000C2E90054916008A90022022300F0BEFC8A
:1044A000DAF8200000283FF4D3AE08A90022022346
:1044B00000F0B4FCCCE600BF00214846C4F216412F
:1044C00001F05CFD0DF1440870B902200AF8050006
:1044D00000204AF806000AF8040050E700204AF8D5
:1044E00006000AF8040048E700214846C4F24821C3
:1044F00001F04BFD10B1022041E700BF002148460A
:10450000C4F2C82101F03AFD002818BF012036E7A7
:10451000002015B0BDE8F04F00F0E2B842F6586C4C
:10452000C2F2000CDCF8003003B3634653F8082FE6
:10453000EAB1634653F8102FCAB1634653F8182FF7
:10454000AAB1634653F8202F8AB1634653F8282F47
:104550006AB1634653F8302F4AB15CF8382F002A0D
:10456000634608BFC3E90010704700BF6346C3E954
:104570000010704770B515460E460446FFF74EFD15
:1045800094F84400FF2804BF002084F8440094F805
:104590004500FF2804BF002084F84500FFF762FDB6
:1045A000A06B28B12046BDE87040FEF7B3BF00BF46
:1045B00004F1240031462A4600F044F92046BDE8C3
:1045C0007040FEF7A7BF00002DE9F04184B040F233
:1045D0007006C2F20006F06860B3B06950B34FF4E1
:1045E000FA7000F02DF86C46251D4FF000080127E9
:1045F000B0694FF0FF3100F093FF002029468DF89D
:104600000080FFF757FAF06821460522002300F0EA
:1046100005FC322000F014F8012029468DF80070C6
:10462000FFF748FAF06821460522002300F0F6FB68
:10463000DEE700BF002004B0BDE8F04100F050B854
:1046400070B500283FD040F2F804C2F20004A1691E
:1046500051B14FF0500080F31188BFF36F8FBFF35B
:104660004F8F00BFFEE700BF0546A0690130A06183
:10467000666A20680430FFF767FB48B12068AD190F
:10468000456012D3606B21680431FFF787FC15E0A9
:1046900020680121C06A626801FA00F022EA000085
:1046A00060602068AD194560ECD2206B2168043150
:1046B000FFF774FC206A854238BF256201F0B0FA2A
:1046C000002818BF70BD4EF60450CEF200004FF027
:1046D00080510160BFF34F8FBFF36F8F70BD00003B
:1046E00070B50446FFF79AFC40F2F806002CC2F2BF
:1046F000000608BF3468251D2846FFF725FB80B952
:10470000E06A40F2283200EB8001C2F2000252F867
:10471000211031B90121726801FA00F022EA00008B
:104720007060A06A18B104F11800FFF70DFB306843
:10473000B168844201F10101B16019D030690138DA
:10474000306194F85100022809D0012804D00028D3
:1047500040D1206BFFF79EFC2046FFF79BFC306B9F
:10476000006898B1306BC068C068406810E000BF56
:1047700006F13C002946FFF743FCF0680130F06089
:10478000FFF770FC706948B970BD00BF4FF0FF3093
:104790003062FFF767FC70690028F5D0306884420A
:1047A00018BF70BDB06948B14FF0500080F3118858
:1047B000BFF36F8FBFF34F8FFEE700BF4EF604507D
:1047C000CEF200004FF080510160BFF34F8FBFF376
:1047D0006F8F70BD4FF0500080F31188BFF36F8F63
:1047E000BFF34F8FFEE7000040F2F801C2F2000174
:1047F0008A6B0260496A41607047000040F2F8002D
:10480000C2F20000012181627047000080B110B542
:104810000C4640F2F801C2F2000109681831FFF7B6
:10482000BDFB20460121BDE81040FEF7B9BA00BF2C
:104830004FF0500080F31188BFF36F8FBFF34F8F9D
:10484000FEE7000070B588B140F2F806C2F200063B
:104850000C46316815461831FFF7D2FB85B14FF091
:10486000FF302946BDE87040FEF79ABA4FF050007D
:1048700080F31188BFF36F8FBFF34F8FFEE700BF48
:10488000756A30680430FFF75FFA58B13068641910
:10489000446014D3706B31680431BDE87040FFF799
:1048A0007DBB00BF30680121C06A726801FA00F068
:1048B00022EA00007060306864194460EAD2306B0C
:1048C00031680431FFF76AFB306A844238BF3462D2
:1048D00070BD0000F0B581B018B3826C22B3436C98
:1048E0008B4288BF1946012A1BD1C26A8A4218D05E
:1048F00040F2F805C2F200052B6898421ED0836989
:10490000C162002B5CBFC1F10701816140F2283612
:10491000416902EB8202C2F2000606EB820291427A
:1049200016D001B0F0BD00BF4FF0500080F31188E9
:10493000BFF36F8FBFF34F8FFEE700BF4FF0500004
:1049400080F31188BFF36F8FBFF34F8FFEE700BF77
:10495000041D07462046FFF7F7F9F96A01220028EF
:1049600002FA01F002D16A6882436A606A6802430F
:1049700001EB810006EB800021466A6001B0BDE8D2
:10498000F040FFF73DBB000010B588B00020CDE936
:10499000050006A805A904AAFFF784FA05980028CF
:1049A0003ED0069C002C45D05421049A07910799CB
:1049B000542949D107992063022084F8510007A89F
:1049C0000021CDE9001042F61D70C0F6000028A1BC
:1049D00000230294FEF7E6FA2046FEF721FA079834
:1049E00040F2F804C2F20004E061B0B101F0ACF9A9
:1049F000411C33D0012810D14FF0500080F31188B2
:104A0000BFF36F8FBFF34F8F4FF0FF302062012055
:104A100060610020606200F06FF808B010BD00BF58
:104A20004FF0500080F31188BFF36F8FBFF34F8FAB
:104A3000FEE700BF4FF0500080F31188BFF36F8F87
:104A4000BFF34F8FFEE700BF4FF0500080F3118897
:104A5000BFF36F8FBFF34F8FFEE700BF4FF05000E3
:104A600080F31188BFF36F8FBFF34F8FFEE700BF56
:104A700049444C450000000040F2F800C2F200003A
:104A8000816901318161704740F2F800C2F2000093
:104A9000816900291EBF0121816270470021816266
:104AA0004168B1FA81F1C9B2C1F11F0140F2283267
:104AB00001EB8101C2F2000252F8213063B102EB36
:104AC0008102516802F108034968994251600DD092
:104AD000C9680160704700BF4FF0500080F3118833
:104AE000BFF36F8FBFF34F8FFEE700BF4968516080
:104AF000C968016070470000B0B584B04EF2004C48
:104B0000CEF2000C9CF800100291FF218CF80010EE
:104B10009CF800108DF807109DF8071001F0500266
:104B200040F2CC11C2F200010A7007224A609DF9DE
:104B30000720B2F1FF3F61DC032200BFD31C4B60B2
:104B40009DF8070040008DF807009DF90700B0F1BF
:104B5000FF3F24DC931C4B609DF8070040008DF85C
:104B600007009DF90700B0F1FF3F18DC531C4B60B4
:104B70009DF8070040008DF807009DF90700B0F18F
:104B8000FF3F0CDC4A609DF80700043A40008DF8B6
:104B900007009DF90700B0F1FF3FCFDD131D032B88
:104BA0002CD14FF44070486002988CF80000DCF87B
:104BB000200940F47000CCF82009DCF8200940F00E
:104BC0007040CCF82009FFF7D5FA40F20C04C2F28D
:104BD000000400252560FEF7B7FAFFF755FF03959F
:104BE00020684FF0500181F31188BFF36F8FBFF33E
:104BF0004F8F013012D000BFFEE700BF4FF05000D2
:104C000080F31188BFF36F8FBFF34F8FFEE700BFB4
:104C1000039830B9039820B9039810B90398002875
:104C2000F6D0002004B0B0BD80B54FF0500080F346
:104C30001188BFF36F8FBFF34F8F00F087FE30B145
:104C40004EF60450CEF200004FF08051016000207B
:104C500080F3118880BD0000B0B54820FEF794FCB9
:104C6000044660B30025012084F846502460C4E95E
:104C70000F05FFF7D3F92068D4E90F12A56302FBF3
:104C80000103013901FB0201C4E90103FF20E160D6
:104C900084F8440084F8450004F11000FFF76EF931
:104CA00004F12400FFF76AF9FFF7DCF92046002140
:104CB000002200232560C4E9025500F0AFF8204629
:104CC000B0BD0000A0B3F0B581B005464843483000
:104CD0000E46FEF759FC044630B30027204684F800
:104CE0004670002E18BF48302060C4E90F56FFF709
:104CF00095F92068D4E90F12A76302FB010301397B
:104D000001FB0201C4E90103FF20E16084F84400D3
:104D100084F8450004F11000FFF730F904F1240095
:104D2000FFF72CF9FFF79EF9204601B0F0BD00BF58
:104D30004FF0500080F31188BFF36F8FBFF34F8F98
:104D4000FEE7000010B582B060B1ABB1F1B9EAB1D5
:104D50004FF0500080F31188BFF36F8FBFF34F8F78
:104D6000FEE700BF4FF0500080F31188BFF36F8F54
:104D7000BFF34F8FFEE700BF4FF0500080F3118864
:104D8000BFF36F8FBFF34F8FFEE700BF51B14AB93A
:104D90004FF0500080F31188BFF36F8FBFF34F8F38
:104DA000FEE700BF48240194019C482C2CD1019CB3
:104DB000012483F84640002908BF1A461A60C3E957
:104DC0000F011C46FFF72AF92068D4E90F120023CF
:104DD00002FB010C013901FB0201A363C4E9010CD0
:104DE000FF20E16084F8440084F8450004F11000DD
:104DF000FFF7C4F804F12400FFF7C0F8FFF732F919
:104E0000204602B010BD00BF4FF0500080F3118863
:104E1000BFF36F8FBFF34F8FFEE700002DE9F04F18
:104E200083B00292C0B11D460446F9B1022D02D1F1
:104E3000E06B01285CD116460F4600F071FD18BBEF
:104E400016B34FF0500080F31188BFF36F8FBFF39C
:104E50004F8F00BFFEE700BF4FF0500080F3118876
:104E6000BFF36F8FBFF34F8FFEE700BF206C0028AA
:104E7000DCD04FF0500080F31188BFF36F8FBFF389
:104E80004F8F00BFFEE700BFFFF7C8F8A06B022DF1
:104E900065D0E16B884262D30298002800F0188147
:104EA0006846FFF7A1FCFFF7DDF8FFF7E5FDFFF728
:104EB000B5F894F84400FF2804BF002084F84400AB
:104EC00094F84500FF2804BF002084F84500FFF750
:104ED000C9F8684602A900F069FC98B12046FEF7BF
:104EE00019FB00F09DFE002003B0BDE8F08F00BF6D
:104EF0004FF0500080F31188BFF36F8FBFF34F8FD7
:104F0000FEE700BF04F11008FFF788F8D4F83890E6
:104F1000E66BFFF7A7F8B14516D102994046FFF7B7
:104F200075FC2046FEF7F6FA00F07AFE88B94EF6D8
:104F30000450CEF200004FF080510160BFF34F8F5C
:104F4000BFF36F8F05E000BF2046FEF7E3FA00F0E5
:104F500067FEFFF763F8A06BE16B884266D2A66B31
:104F6000226CDAB139462DB3E068FBF7C1FBE1688A
:104F7000206C2268091A9142E16003D2A168404284
:104F80000844E060A81EB0FA80F040093146002EC7
:104F900018BF01210840361A18E000BF2068A8B9E0
:104FA000A06800F057FD0021B0FA80F0A160400930
:104FB0000DE000BF6068FBF79BFBD4E90101226CA8
:104FC00010448842606001D3206860600120711C39
:104FD000A16354F8241FA9B1204600F0E7FD50B1A9
:104FE0004EF60450CEF200004FF080510160BFF346
:104FF0004F8FBFF36F8FFFF735F8012003B0BDE887
:10500000F08F00BF0028F6D14EF60450CEF200001B
:105010004FF080510160BFF34F8FBFF36F8FFFF7E9
:1050200021F8012003B0BDE8F08F00BFE94602AED1
:105030000CE000BF2046FEF76DFA00F0F1FDFEF730
:10504000EDFFA06BE16B8842FFF489AF0298002866
:105050003ED0FFF707F8FFF70FFDFEF7DFFF94F8EC
:105060004400FF2804BF002084F8440094F8450061
:10507000FF2804BF002084F84500FEF7F3FF4846F0
:10508000314600F093FB00287FF428AFFEF7C6FFFF
:10509000D4F838A0D4F83CB0FEF7E4FFDA45C9D123
:1050A00002994046FFF7B2FB2046FEF733FA00F0C4
:1050B000B7FD0028C3D14EF60450CEF200004FF0E9
:1050C00080510160BFF34F8FBFF36F8FB7E700BF11
:1050D000FEF7C8FF002003B0BDE8F08F2DE9F047D0
:1050E00000B31D46044639B3022D02D1E06B0128FE
:1050F00052D10E469046FFF757F8EFF3118A4FF062
:10510000500080F31188BFF36F8FBFF34F8FA06BF8
:10511000022D1FD0E16B88421CD300208AF3118836
:10512000BDE8F0874FF0500080F31188BFF36F8F18
:10513000BFF34F8FFEE700BF206C0028D4D04FF0A4
:10514000500080F31188BFF36F8FBFF34F8F00BF04
:10515000FEE700BF94F84590A06BA76B226C2AB3C2
:1051600031465DB3E068FBF7C3FAE168206C226862
:10517000091A9142E16003D2A16840420844E0600C
:10518000A81EB0FA80F040093946002F18BF01214F
:1051900008403F1A1EE000BF4FF0500080F3118816
:1051A000BFF36F8FBFF34F8FFEE700BF206888B952
:1051B000A06800F04FFC0020A0600BE06068FBF7E7
:1051C00097FAD4E90101226C10448842606001D34F
:1051D00020686060781CB9F1FF0FA06312D154F809
:1051E000240F98B1204600F0E1FC0146B8F1000F11
:1051F0004FF0010018BF00290ED18AF31188BDE8D5
:10520000F08700BF09F1010084F8450001208AF30E
:105210001188BDE8F08700BFC8F800008AF3118844
:10522000BDE8F08760B1026CA2B14FF0500080F38E
:105230001188BFF36F8FBFF34F8F00BFFEE700BF32
:105240004FF0500080F31188BFF36F8FBFF34F8F83
:10525000FEE700BF02686AB3B0B50D460446FEF72C
:10526000A3FF2046EFF311844FF0500181F3118822
:10527000BFF36F8FBFF34F8F826BC16B8A4215D222
:1052800090F845100132FF29826321D150F8241F84
:1052900009B300F08BFC0146002D4FF0010018BF50
:1052A000002919D0286084F31188B0BD002084F350
:1052B0001188B0BD8268002ACED04FF0500080F334
:1052C0001188BFF36F8FBFF34F8F00BFFEE700BFA2
:1052D000013180F84510012084F31188B0BD000031
:1052E0002DE9F04F83B0029290B115460446002993
:1052F00048D00E4600F014FBA0B99DB14FF050000D
:1053000080F31188BFF36F8FBFF34F8FFEE700BFAD
:105310004FF0500080F31188BFF36F8FBFF34F8FB2
:10532000FEE700BFFEF77AFED4F838A0BAF1000F0E
:1053300036D0226C52B1D4E9023130461144E160DA
:10534000994224BF2168E160FBF7D2F9AAF101007C
:10535000A06354F8100F70B1204600F027FC50B144
:105360004EF60450CEF200004FF080510160BFF3C2
:105370004F8FBFF36F8F0124FEF774FE204603B0FA
:10538000BDE8F08F206C0028B3D04FF0500080F3C0
:105390001188BFF36F8FBFF34F8F00BFFEE700BFD1
:1053A0000298002800F0B4806846FFF71DFAFEF767
:1053B00059FEFFF761FBFEF731FE94F8440004F15B
:1053C0002408FF2804BF002084F8440094F8450016
:1053D000FF2804BF002084F84500FEF743FE68461E
:1053E00002A900F0E3F978B12046FEF793F800F047
:1053F00017FCFEF713FEA56BFEF734FE2DBB002451
:10540000204603B0BDE8F08FFEF708FEA56BFEF75F
:1054100029FE2DB12046FEF77DF800F001FC14E0D6
:1054200002994046FFF7F2F92046FEF773F800F0C4
:10543000F7FB50B94EF60450CEF200004FF0805109
:105440000160BFF34F8FBFF36F8FFEF7E7FDD4F816
:1054500038A0BAF1000F7FF46CAF4FF00009EB46B3
:1054600002AF13E02046FEF755F800F0D9FBFEF737
:10547000D5FDA56BFEF7F6FD002DC0D0FEF7CEFDE5
:10548000D4F838A0BAF1000F7FF453AF0298002887
:105490003ED0FEF7E7FDFFF7EFFAFEF7BFFD94F809
:1054A0004400FF2808BF84F8449094F84500FF2882
:1054B00008BF84F84590FEF7D5FD5846394600F000
:1054C00075F90028CED1FEF7A9FDA56BFEF7CAFD40
:1054D00035B12046FEF71EF800F0A2FBCEE700BF74
:1054E00002994046FFF792F92046FEF713F800F0C4
:1054F00097FB0028C2D14EF60450CEF200004FF0C8
:1055000080510160BFF34F8FBFF36F8FB6E700BFCD
:105510000024FEF7A7FD204603B0BDE8F08F000091
:105520002DE9F04F83B0029160B10446006C98B150
:105530004FF0500080F31188BFF36F8FBFF34F8F90
:10554000FEE700BF4FF0500080F31188BFF36F8F6C
:10555000BFF34F8FFEE700BF0D4600F0E1F958B9E9
:1055600055B14FF0500080F31188BFF36F8FBFF338
:105570004F8F00BFFEE700BFFEF750FDA06BF8B1F4
:105580000138A063206810B9FEF7F2F8A06054F863
:10559000100F70B1204600F009FB50B14EF60450D8
:1055A000CEF200004FF080510160BFF34F8FBFF388
:1055B0006F8F0126FEF756FD304603B0BDE8F08F31
:1055C0000298002800F0EA806846FFF70DF9FEF720
:1055D00049FDFFF751FAFEF721FD94F8440004F16C
:1055E0002408FF2804BF002084F8440094F84500F4
:1055F000FF2804BF002084F84500FEF733FD68460D
:1056000002A900F0D3F868B12046FDF783FF00F04F
:1056100007FBFEF703FDA56BFEF724FD4FF0000628
:105620007DBBC9E7FEF7FAFCA56BFEF71BFD3DB19C
:105630002046FDF76FFF00F0F3FA002621E000BFDF
:10564000206808B1002607E0FEF7E8FCA06800F03B
:1056500059FA0646FEF706FD02994046FFF7D6F8CE
:105660002046FDF757FF00F0DBFA50B94EF6045024
:10567000CEF200004FF080510160BFF34F8FBFF3B7
:105680006F8FFEF7CBFCA06B00287FF479AF4FF053
:105690000009EB4602AD11E02046FDF73BFF00F0AC
:1056A000BFFAFEF7BBFCA76BFEF7DCFC002F5FD058
:1056B000FEF7B4FCA06B00287FF462AF02980028CC
:1056C0004AD0FEF7CFFCFFF7D7F9FEF7A7FC94F816
:1056D0004400FF2808BF84F8449094F84500FF2850
:1056E00008BF84F84590FEF7BDFC5846294600F0F7
:1056F0005DF80028D0D1FEF791FCD4F838A0FEF771
:10570000B1FCBAF1000F05D02046FDF703FF00F011
:1057100087FACDE7206838B9FEF780FCA06800F072
:10572000F1F90646FEF79EFC02994046FFF76EF837
:105730002046FDF7EFFE00F073FA0028B8D14EF6D0
:105740000450CEF200004FF080510160BFF34F8F44
:10575000BFF36F8FACE700BF06B34FF0500080F38C
:105760001188BFF36F8FBFF34F8F00BFFEE700BFFD
:1057700056B1FEF753FCD8F8000058B1206B006812
:10578000C0F1070107E000BF0026304603B0BDE8C6
:10579000F08F00BF0021A068FFF79CF80026FEF7FD
:1057A00061FC304603B0BDE8F08F0000B0B548B3EF
:1057B0000C4689B30546FEF731FC40F2F80CC2F204
:1057C000000CDCF824302268501C2FD0AE466868EC
:1057D0002D68DCF83810A94201D083422ED2181A65
:1057E000824229D9101A2060DCF838000024CEF853
:1057F0000000DCF82400CEF80400FEF733FC20465D
:10580000B0BD00BF4FF0500080F31188BFF36F8F21
:10581000BFF34F8FFEE700BF4FF0500080F31188B9
:10582000BFF36F8FBFF34F8FFEE700BF0024FEF77B
:1058300019FC2046B0BD00BF002020600124FEF707
:1058400011FC2046B0BD00002DE9F04184B00746B0
:105850009000984615460E46FDF796FEF8B10446B0
:105860005420FDF791FEB8B1DDE90A21002304635D
:1058700080F85130CDE900210446384631462A46A9
:1058800043460294FDF78EFB2046FDF7C9FA01203E
:1058900004B0BDE8F08100BF2046FEF7FBFB4FF0EF
:1058A000FF3004B0BDE8F08170B586B00B9CCCB180
:1058B0000C9E0EB354250495049D542D26D1049DB1
:1058C000DDF828C0022586F8515005AD3463CDE9D6
:1058D00000C50296FDF766FB3046FDF7A1FA059874
:1058E00006B070BD4FF0500080F31188BFF36F8F8A
:1058F000BFF34F8FFEE700BF4FF0500080F31188D9
:10590000BFF36F8FBFF34F8FFEE700BF4FF0500024
:1059100080F31188BFF36F8FBFF34F8FFEE7000056
:1059200040F2F800C2F20000416900290FBF0120D7
:105930008069B0FA80F0400918BF4000704700004D
:1059400040F2F800C2F20000406A70472DE9F047CB
:1059500040F2F806C2F20006B06928B1F06A0130E0
:10596000F0620020BDE8F087706A10F1010AC6F805
:1059700024A020D3306B006850B14FF0500080F36A
:105980001188BFF36F8FBFF34F8F00BFFEE700BFDB
:10599000306B716B31637063B06B0130B063306B2F
:1059A000006828B1306BC068C068406802E000BF82
:1059B0004FF0FF303062306A40F228388245C2F240
:1059C000000801D2002434E0306B0024006868B382
:1059D0004FF0010916E000BFF86A716809FA00F299
:1059E000114300EB8000716008EB80002946FEF750
:1059F00007FBF86A3168C96A326B8842106828BFB1
:105A00004C4698B1306BC068C7683D4655F8040FE6
:105A100082450DD32846FEF797F9B86A0028DBD0F7
:105A200007F11800FEF790F9D6E700BF4FF0FF30FE
:105A300030623068C06A00EB800058F8200001280E
:105A400088BF0124B06A002818BF01242046BDE8A1
:105A5000F087000070B588B140F2F805C2F2000589
:105A6000296888420CD04FF0500080F31188BFF3B2
:105A70006F8FBFF34F8F00BFFEE700BF002070BDE8
:105A8000816CA9B3013981644FF000012ED1C26A43
:105A9000436C9A422AD0041D06462046FEF754F96C
:105AA000002840F228303146C2F200000CD1CA6A08
:105AB00002EB820350F8233033B901236E6803FAF6
:105AC00002F226EA02026A604A6CC2F10703CA6265
:105AD0008B6101216B6891401943696002EB82017F
