:020000040800F2
:1000000080380020BD010008851C00086118000828
:10001000811C000845070008D120000800000000EE
:10002000000000000000000000000000E11C0008CB
:100030004907000800000000911C00089D1F0008EF
:10004000D7010008D7010008D7010008D701000830
:10005000D7010008D7010008D7010008D701000820
:1000600099070008D7010008A1070008D701000878
:10007000D7010008D7010008D7010008D701000800
:10008000D7010008D7010008D7010008D7010008F0
:10009000D7010008D7010008D7010008D7010008E0
:1000A000D7010008D7010008D7010008D7010008D0
:1000B000D7010008D7010008D7010008D7010008C0
:1000C000D7010008D7010008D7010008D7010008B0
:1000D000D7010008D7010008D7010008D7010008A0
:1000E00091070008D7010008D701000800F002F8C6
:1000F00000F055F814A696E8000CB244B344DA4573
:1001000001D100F04CF8BAE80F000FA696E83000D5
:10011000A5EB040504EB0607AAEB0704A7F101070A
:100120004FEA15154FEA3414A4F10104AC4201D38F
:1001300000F035F813F0010F18BFFB1A43F001036C
:1001400000F001F8DBE718470857000028570000C7
:10015000103A24BF78C878C1FAD8520724BF30C8F3
:1001600030C144BF04680C60704700007047000055
:100170000023002400250026103A28BF78C1FBD8B0
:10018000520728BF30C148BF0B607047752900F087
:100190007D80002070471FB51FBD10B510BD00F059
:1001A0008FFA1146FFF7F7FF02F0F8FB00F0ADFA07
:1001B00003B4FFF7F2FF03BC00F0B4FA094880472C
:1001C00009480047FEE7FEE7FEE7FEE7FEE7FEE739
:1001D000FEE7FEE7FEE7FEE704480549054A064B51
:1001E00070470000B51F0008ED00000880320020B5
:1001F0008038002080340020803400200FB41CB5EB
:100200000C0007AA009007D04142A14202D320442B
:10021000401E01E04FF0FF30074B7B4469460190E0
:10022000069800F000FA0020002C01D00099087018
:100230001CBC5DF814FB00002F04000070B50446E0
:1002400085690068C10601D5302600E02026C00778
:1002500007D070BDD4E9012130469047206A401C88
:1002600020626D1EF6D570BD70B5044685690078B4
:10027000C00707D170BDD4E9012120209047206A32
:10028000401C20626D1EF6D570BD00002DE9F041C6
:100290000646002410687529314616A510D0AFF324
:1002A0000080002802DA404213A507E031688A077F
:1002B00001D512A502E0490704D511A5012401E0EA
:1002C000AFF3008000210A2206F1240709E0B0FB09
:1002D000F2FCB0FBF2F302FB1C00303078541846FD
:1002E000491C0028F3D123462A463046BDE8F04198
:1002F00000F03BB9000000002D0000002B000000C2
:10030000200000002DE9F05F894604464FF0000A06
:10031000DFF874B1FB44C0F820A02046E1688847AC
:10032000002874D0252806D0D4E901219047206AFE
:10033000401C2062F1E700265F462046E1688847BE
:100340002028054607DB312D05D2781910F8200C3E
:1003500008B10643F1E7B00701D526F00406C4F85A
:100360001CA00027C4F818A02A2D09D0284605F0A3
:1003700024FA38B304EB8708303DC8F8185019E068
:1003800059F8041B204604EB87029161E168884715
:10039000012F054618D1E069002820DA26F0200652
:1003A0001DE0D8F8180000EB800005EB4000303865
:1003B000C8F818002046E1688847054605F0FDF9B1
:1003C0000028EED1012F0AD02E2D08D12046E16859
:1003D00088477F1C0546022F46F02006C4DBA06933
:1003E000002803DA404246F00106A061F00701D080
:1003F00026F010066C2D0BD0682D09D04C2D39D06D
:100400006A2D35D0742D35D07A2D33D016E038E0F2
:10041000E1682F4620468847B842054609D16C2F2F
:1004200026D04FF48060E1680643204688470546A1
:1004300004E06C2F1AD04FF4807006430DB3A5F181
:100440004100192802D8203546F400664A4629465C
:10045000204626604E46FFF799FE80B101280BD05A
:10046000F61D26F0070000F1080956E74020E4E7F2
:100470008020D8E70020D6E706F104094DE728469A
:1004800052E7206ABDE8F09FB0540000032A40F212
:10049000308010F0030C00F0158011F8013BBCF126
:1004A000020F624498BF11F801CB00F8013B38BF3E
:1004B00011F8013BA2F1040298BF00F801CB38BF4C
:1004C00000F8013B11F0030300F0C880083AC0F0C7
:1004D000088051F8043B083A51F804CBA0E8081012
:1004E000F5E7121D5CBF51F8043B40F8043BAFF345
:1004F0000080D20724BF11F8013B11F801CB48BF9F
:1005000011F8012B24BF00F8013B00F801CB48BFD4
:1005100000F8012B70474FF0000200B513469446D7
:100520009646203922BFA0E80C50A0E80C50B1F14B
:100530002001BFF4F7AF090728BFA0E80C5048BF5F
:100540000CC05DF804EB890028BF40F8042B08BFFD
:10055000704748BF20F8022B11F0804F18BF00F8F9
:10056000012B70477047704770472DE9F0470D46E3
:1005700099469246044600F124080168880604D58D
:10058000E06921F01001216000E00120A84201DDB6
:10059000471B00E00027A1697A1902EB0900081A3D
:1005A000A0612078C00602D42046FFF747FE00264F
:1005B00008E0D4E901211AF806009047206A401C9F
:1005C000761C20624E45F4DB2078C0060AD5204612
:1005D000FFF734FE06E0D4E9012130209047206A7D
:1005E000401C2062381EA7F10107F4DC07E0D4E9C3
:1005F000012118F805009047206A401C2062281E3F
:10060000A5F10105F3DC2046FFF72EFE2078000659
:1006100002D50220BDE8F0870120FBE701694A1CF2
:1006200002610878704700B58FB0CDE90131002133
:10063000059105497944CDE9031011466846FFF755
:1006400061FE0FB000BD0000E5FFFFFFD1E9002310
:100650009A4202D2531C0B601070704710B5203ABA
:10066000C0F00B80B1E81850A0E81850B1E818505D
:10067000A0E81850203ABFF4F5AF5FEA027C24BF2F
:10068000B1E81850A0E8185044BF18C918C0BDE818
:1006900010405FEA827C24BF51F8043B40F8043BE1
:1006A00008BF7047D20728BF31F8023B48BF11F896
:1006B000012B28BF20F8023B48BF00F8012B7047F0
:1006C000754600F02BF8AE4605006946534620F00B
:1006D0000700854618B020B5FFF77EFDBDE8204035
:1006E0004FF000064FF000074FF000084FF0000BEE
:1006F000AC46ACE8C009ACE8C009ACE8C009ACE85D
:10070000C00921F007018D46704710B50446AFF3CC
:1007100000802046BDE81040FFF74ABD0048704702
:100720001800002001491820ABBEFEE72600020099
:100730007047000040F27800C2F2000040690221D8
:1007400003F00CBDFEE700007047000086B06C4669
:1007500040F2780604F10C05C2F20006F06821466A
:100760004FF0FF3204F0DCF90128F7D13069142191
:1007700004F0F6FA0128F1D12046294601F092FE54
:10078000306900210022002303F068FFE6E7000043
:100790004FF4806000F088B8042000F085B80000B5
:1007A000102000F081B80000B0B5044600F09CF9BC
:1007B000054640F20000C2F200000078611C18BF3C
:1007C000044400BF00F090F9401BA042FAD3B0BD32
:1007D000042805D0B0F5806F2ED0102818BF7047C0
:1007E000F0B581B000240428009402D0102821D153
:1007F000012440F2780544EA4400C2F2000505EB0A
:10080000800090F84210A9B141F20401CEF200013B
:100810000F681DA101EB0411898900F1380640F62B
:100820000000C4F2010000F053F901280CD10120AE
:100830003760307201B0F0BD40F27800C2F20000C3
:1008400001210170704700BF307A0028F2D0306873
:100850006946381A7060002030720120707205EB12
:100860008400806A04F0FEF800980028E2D04EF67A
:100870000450CEF200004FF080510160BFF34F8F63
:10088000BFF36F8F01B0F0BD00080140020000000F
:1008900000080140040000000008014008000000BA
:1008A000000801401000000040F21441C4F20101B0
:1008B0000A68024214BF08607047FFF789BF000052
:1008C0002DE9F04F82B00E68002E00F0FD8041F25D
:1008D0000042C4F20102042340F2004E904208BFDD
:1008E00003234FF6FF7CC4F2010E00930024012382
:1008F000C1F2100C4FF0000A4FF000094BE000BFAE
:1009000041F20002C4F20102009F904208BF022798
:1009100004F00C030F229A402BEA020207FA03F3B9
:100920004FEA9A051A4346F825204E6840F20C45D6
:10093000F202DEF8082054BF22EA080242EA080266
:10094000C4F20105CEF808202A68B30254BF22EA97
:10095000080242EA08022A60B303DEF8042054BF0A
:1009600022EA080242EA0802F303CEF80420DEF885
:1009700000204FF0010354BF22EA080242EA0802B5
:10098000CEF800200E680AF1010A36FA0AF204F1E4
:10099000040400F0998003FA0AFB16EA0B08F1D070
:1009A0004E68664512DC122E56D8DFE806F0350B8D
:1009B0004D4955555555555555555555555555450B
:1009C000510000BFD1F80C9046E000BF4FF6FF7217
:1009D000C1F2210296420FDC0022C1F211029642BE
:1009E0001AD00022C1F21202964215D00022C1F2A2
:1009F0002102964210D02FE00022C1F2220296423C
:100A00000AD00022C1F23102964205D00022C1F282
:100A10003202964220D100BF8A684AB1012A14BF2F
:100A2000C0F814B0C0F810B04FF0080914E000BFCF
:100A30004FF0040910E000BFCA6802F104090BE09E
:100A40004FF0000908E000BFCA6802F1080903E09E
:100A5000CA6802F10C0900BF02462646B8F5807F3D
:100A600024BF0432203E17680F25B54027EA05054C
:100A700009FA06F635431560CA79D2067FF582AFCA
:100A800041F21803C4F202031A68AEF57E7642F012
:100A900001021A601A6802F001020192019A2AF01A
:100AA000030256F802B040F60002C4F2010290427E
:100AB00008D040F60042C4F2010290427FF420AF19
:100AC000012725E7002723E702B0BDE8F08F0000EB
:100AD0008068084018BF012070470000002A08BF46
:100AE000090401617047000042F69430C2F2000030
:100AF00000687047002804BF01207047F0B581B03E
:100B0000044690F83D0028B9002084F83C002046B7
:100B100000F09AFA242084F83D002068016821F052
:100B200001010160016841F400410160016821F4A4
:100B30000041016000F06AFC636848F2A16CC0F2F9
:100B4000010C40F60011C0F23D0163453CBF48F284
:100B50008041C0F21E01884202D2012001B0F0BDE6
:100B60004DF68361C4F21B31A0FB01122168970C82
:100B7000D1F804E04FF496762EF03F0545EA924511
:100B80004D60774348F638160D6AC0F24106A7FB60
:100B9000067625F03F07634538BF960C721C3A4332
:100BA0000A62CA6948F2A0664CF6FF77C0F20106F5
:100BB000B34222EA07020BD801385B00B0FBF3F026
:100BC00001306FF31F30042898BF04201BE000BFE2
:100BD000A768013857B119277B43B0FBF3F0013008
:100BE0006FF31F3070B100F5804007E003EB430363
:100BF000B0FBF3F001306FF31F3018B100F5004087
:100C000001E000BF01201043C8610868D4E9072350
:100C100020F0C000104318430860886848F2FF3293
:100C200004F10C0790438CCF18431043A6698860E9
:100C3000C86820F0FF0038433043C860086840F0BF
:100C40000100086000202021206484F83D1020630A
:100C500084F83E0001B0F0BD2DE9F04F83B01E4690
:100C6000924688460446FFF73FFF94F83D1020293E
:100C700024D12168054600BF886980071AD5FFF78F
:100C800033FF401B21681A28F6D388698007F3D503
:100C900000202021206384F83D1084F83E00216C60
:100CA00041F02001216484F83C00022003B0BDE83B
:100CB000F08F00BF94F83C00012803D1022003B05C
:100CC000BDE8F08F4FF0010984F83C900868C00738
:100CD00003D1086840F0010008600868002720F48C
:100CE00000600860242084F83D000020CFF6FF70EB
:100CF0002764E06208F0FE08BAF1010F88BFD14610
:100D00004FF0A00A4FF0200B04E000BF01374F4521
:100D100000F0A2800868002240F48070086020463D
:100D20004FF001113346009500F0FAFD21680028CC
:100D300056D1C1F81080FFF7D7FE21684B694A6988
:100D400094F83D50A02D054605D013F0020008BFD1
:100D500012F480601AD084F83DB048690A688007B0
:100D600042F400720A6045D46FF48060486100BFAD
:100D700088698007CAD5FFF7B7FE401B21681A288B
:100D8000F6D388698007F3D54AE000BFB6B100BF4B
:100D9000FFF7AAFE401BB04288BF84F83DA021683F
:100DA0004A69486994F83D30A02BD4D012F0020271
:100DB00008BF10F48060EBD0CDE700BFFFF794FED2
:100DC00084F83DA021684A69486994F83D30A02B19
:100DD000C1D012F00202BED110F48060EED0BAE7AA
:100DE0000868C00544BF4FF400702064032003B0BE
:100DF000BDE8F08F00200290486902908869029057
:100E00000298886901E000BF806980071AD5FFF762
:100E10006BFE411B20681A29F6D381698907F3D537
:100E200000202021206384F83D1084F83E00216CCE
:100E300041F02001216484F83C00012003B0BDE8AA
:100E4000F08F00BF202084F83D00002084F83C0093
:100E500003B0BDE8F08F00BF202084F83D000020E3
:100E600084F83C00012003B0BDE8F08F2DE9F04389
:100E700083B01E46174689460446FFF735FE94F8B0
:100E80003D10202924D10546206800BF81698907CB
:100E90001AD5FFF729FE411B20681A29F6D381696C
:100EA0008907F3D500202021206384F83D1084F8C1
:100EB0003E00216C41F02001216484F83C000220B6
:100EC00003B0BDE8F08300BF94F83C10012903D1C2
:100ED000022003B0BDE8F083012184F83C100168D2
:100EE000C90703D1016841F001010160016840F2C6
:100EF000020821F400610160212184F83D101021D5
:100F000084F83E100021216467626685618DC0F21D
:100F100001082185A8F10211E162E16A0A9E11F53A
:100F2000803F18BF01291DD1016841F48071016023
:100F300020464FF0011100223346009500F0F0FCEE
:100F400050B120680068C00544BF4FF400702064B1
:100F5000012003B0BDE8F0832069B0F5804F07D1D0
:100F6000FE2015E00829DFD0216B1229DCD0DFE755
:100F7000062000EAD9102168F030086108F1060166
:100F8000204632462B4600F0B1FD0028E0D1FF207C
:100F9000216800EA090008612046414632462B4696
:100FA00000F0A4FD0028D3D1002002902068416900
:100FB000029180690290029806E000BF2046314607
:100FC0002A4600F04FFC18BB208D68B320463146FE
:100FD0002A4600F0F7FDD8B9606A2168024612F887
:100FE000013B0B616262628D013A6285228D531E64
:100FF00023854F697F07E1D51B04DFD0437802309A
:101000000B616062608D01386085901E2085D5E798
:10101000206C04289CD12068016841F400710160B3
:10102000012003B0BDE8F0832068016841F400713D
:101030000160202084F83D00002084F83E0084F800
:101040003C0003B0BDE8F08310B586B0006845F2FF
:101050000041C4F2000188424FF00000CDE90400D5
:10106000CDE9020002D006B010BD00BF41F2180465
:10107000C4F20204206802A940F008002060206841
:1010800000F00800019001984FF440700290122087
:1010900003900320059040F60040C4F20100FFF7E2
:1010A0000FFC0420C4F20100016841F0E06141F04E
:1010B00002010160606840F400106060606800F444
:1010C00000100190019806B010BD000040F2000031
:1010D00042F69431C2F20000C2F2000100780A68C0
:1010E000104408607047000080B542F20000C4F26E
:1010F0000200016841F010010160032000F092F845
:101100000F2000F005F800F027F8002080BD000057
:1011100070B540F20006C2F2000640F208013278D3
:10112000C2F200014FF47A730968B3FBF2F204468D
:10113000B1FBF2F1084600F07DFB0F2C4FF00105EA
:1011400008D838B94FF0FF3021460022002500F0C2
:101150003DF87460284670BD80B582B041F2180039
:10116000C4F202000168002241F00101016001683F
:1011700001F0010101910199416841F08051416004
:1011800040680F2100F08050009000986FF001003F
:1011900000F01CF80420C4F201000168022262F38E
:1011A0001A61016002B080BD002848BF704700F09E
:1011B0001F01012202FA01F11C2202EAD0004EF2C4
:1011C0000012CEF2000281507047000010B54EF6BA
:1011D0000C5CCEF2000CDCF80030C3F3022E8EF073
:1011E0000704042C28BF0424BEF103034FF0FF3E84
:1011F0000EFA04F438BF0023A14399400EFA03F31A
:101200009A43114300F00F0200F160430901043AD0
:1012100003F564436244002848BF02F10C031970CF
:1012200010BD00004EF60C51CEF200010A684FF6D8
:10123000FF031A4060F30A2242F0806040F0FD7024
:1012400008607047002804BF012070472DE9F04373
:1012500081B042F20008C4F202080446D8F8000047
:101260000D4600F0070081420CD9D8F8000020F0AC
:1012700007002843C8F80000D8F8000000F0070075
:10128000A8426CD1206841F204098107C4F2020926
:1012900017D5410705D5D9F8001041F4E061C9F828
:1012A0000010010705D5D9F8001041F46051C9F8C4
:1012B0000010D9F80010A26821F0F0011143C9F81C
:1012C0000010C00742D1D8F8000000F007008542A6
:1012D0000CD2D8F8000020F007002843C8F800001E
:1012E000D8F8000000F00700A84238D12068410774
:1012F00007D5D9F80010E26821F4E0611143C9F87C
:101300000010000708D5D9F80000216920F46050CA
:1013100040EAC100C9F80000D9F8002002F00C0032
:10132000082841F20020C0F27A004DD145F2F37353
:10133000C2F38341C0F60003595CD20338D440F6AF
:101340000010C0F23D0048433EE000BF606859F81D
:10135000041C022808D0012826D1890306D40120C4
:1013600001B0BDE8F08300BF8901F8D5D9F80010BD
:1013700021F003010843C9F80000FFF7B5FB06465A
:1013800041F28837D9F80000616800F00C00B0EB3A
:10139000810F98D0FFF7A8FB801BB842F2D9032039
:1013A00001B0BDE8F08300BF8907D8D5DEE700BFF4
:1013B000D9F8002045F2F173C2F34042C0F60003B1
:1013C0009A5C4843B0FBF2F0D9F8001045F2D972AC
:1013D000C1F30311C0F60002515C40F2080220FA8A
:1013E00001F140F20400C2F200000068C2F2000203
:1013F0001160FFF78DFE002001B0BDE8F083000012
:1014000040F20800C2F200000068704740F2080095
:1014100041F20401C2F20000C4F20201006809684E
:1014200045F2E972C1F30221C0F60002515CC840E6
:1014300070470000002804BF012070472DE9F041EB
:1014400082B00446007841F20006C007C4F20206EA
:101450000CD0706800F00C00042840F081803068E7
:10146000800303D56068002800F04681207880075B
:101470001BD5706810F00C0F09D0706800F00C00DC
:10148000082840F087807068C00300F183803068CE
:10149000800703D52069012840F02E8130686169FA
:1014A00020F0F80040EAC10030602078000713D433
:1014B000207840072CD4E569002D00F01881706871
:1014C00000F00C00082840F0A780012D40F00481B6
:1014D000012002B0BDE8F081A069002800F08480FE
:1014E0000020C4F242200121C0F88014FFF7FCFA6A
:1014F000054600BF706A800700F1B280FFF7F4FA7A
:10150000401B0228F6D9032002B0BDE8F08100BFDD
:10151000F0695FEAC00808D4F06940F08050F061DB
:10152000F06900F080500090009847F20007C4F284
:1015300000073868C00549D4386840F480703860C6
:10154000FFF7D2FA054600BF3868C0053ED4FFF762
:10155000CBFA401B6428F7D9032002B0BDE8F08124
:10156000706800F00C00082803D17068C0033FF5D4
:1015700076AF61683068002900F00C81B1F5A02FCA
:1015800000F00081B1F5803F40F01A8140F48030D6
:101590001CE100BF2069002840F20000C4F2422094
:1015A00000F0888001210160FFF79EFA054600BF28
:1015B000306880073FF572AFFFF796FA401B0228AC
:1015C000F6D9032002B0BDE8F08100BFE168306ABF
:1015D000002900F09D80052900F09280012940F04B
:1015E000AF8040F00100B1E00020C4F242200021B1
:1015F000C0F88014FFF778FA054600BF706A8007CC
:101600007FF556AFFFF770FA401B0228F6D903208A
:1016100002B0BDE8F08100BF0027C4F242270020DD
:101620003866FFF761FA022D05460DD1306880015A
:1016300040F1DE80FFF758FA401B02284FF003000C
:10164000F4D902B0BDE8F081306880014FD5FFF7D2
:101650004BFA401B02284FF00300F5D9F1E700BF19
:1016600040F20800C2F20000006844F6D351C1F213
:101670006201A0FB0101480A019000BF00BF019870
:10168000411E002801913FF413AF00BF0198411E95
:10169000002801913FF40CAF00BF0198411E0028C3
:1016A00001913FF405AF00BF0198411E0028019150
:1016B000E4D1FDE600210160FFF716FA054600BF00
:1016C000306880077FF5F1AEFFF70EFA401B022865
:1016D0004FF00300F4D9B4E77068216A00F4803257
:1016E0008A4209D1616A00F47010884204D1002056
:1016F00002B0BDE8F08100BF012002B0BDE8F0817A
:1017000040F004003062306A40F001001EE000BF8B
:1017100020F001003062306A20F004003062FFF7F0
:10172000E3F9054641F28837306A800720D5FFF794
:10173000DBF9401BB8424FF00300F5D981E700BF49
:1017400020F001003062306A20F004003062FFF7C0
:10175000CBF9054641F28837306A800708D4FFF795
:10176000C3F9401BB842F7D9032002B0BDE8F081AD
:10177000B8F1000F3FF59FAEF06920F08050F061A6
:1017800099E600BF40F480203060306840F480303B
:101790001CE000BF20F480303060306820F48020EE
:1017A0003060FFF7A1F90546306880037FF55EAE33
:1017B000FFF79AF9401B64284FF00300F4D940E783
:1017C00020F480303060306820F480203060FFF7F3
:1017D0008BF90546306880033FF548AEFFF784F982
:1017E000401B6428F6D9032002B0BDE8F08100BF99
:1017F000206AB0F5803F05D17168A26821F40031FC
:10180000114371607168626A21F4741111430843D5
:10181000706001203866FFF767F904463068800180
:101820003FF565AFFFF760F9001B02284FF003009A
:10183000F4D906E7411E0020B0EB116F1CBF012058
:1018400070474EF21002CEF2000251604EF6235164
:10185000CEF20001F0230B700721906011607047F9
:10186000FEE7000070B50368044653F8140F400704
:1018700011D40E46481C29D086BB00BF186840050D
:1018800027D4FFF731F9236853F8140F400737D5F1
:1018900018684007F2D5002070BD00BF18684007E7
:1018A000F9D41868400514D418684007F3D41868B0
:1018B00040050ED418684007EDD41868400508D4D8
:1018C000186840074FF0000048BF70BD1868400519
:1018D000E4D56FF480601860042012E0154603E040
:1018E00053F8140F4007D6D418684005F1D4FFF719
:1018F000FBF8401B2368B042F2D958694007EFD487
:10190000202000212022216384F83D2084F83E100D
:10191000226C10432064012084F83C1070BD00004C
:101920002DE9F041054600681E46144601F47F0289
:1019300001338FB242D0DDF81880B2F5803F40F01D
:10194000878040693840C01BB0FA80F0400984426B
:1019500040F0C8804EB924E040693840C01BB0FA5E
:1019600080F04009844240F0BD80FFF7BDF8A0EB55
:1019700008012868B142EFD941693940C91BB1FA61
:1019800081F149098C42E7D19BE000BF40693840B2
:10199000C01BB0FA80F0400984424FF0000040F0D4
:1019A000A280FFF7A1F8286841693940C91BB1FA44
:1019B00081F149098C42E9D183E000BFB2F5803F53
:1019C00024D100BF41693940C91BB1FA81F14909ED
:1019D0008C4240F0878041693940C91BB1FA81F1DE
:1019E00049098C4240F07E8041693940C91BB1FAF7
:1019F00081F149098C4275D141693940C91BB1FA5D
:101A000081F149098C42DDD06CE000BF8169394029
:101A1000C91BB1FA81F149098C4263D1816939400E
:101A2000C91BB1FA81F149098C425BD18169394006
:101A3000C91BB1FA81F149098C4253D181693940FE
:101A4000C91BB1FA81F149098C42DFD04AE000BFDD
:101A500080693840C01BB0FA80F04009844241D10F
:101A600046B923E080693840C01BB0FA80F04009D5
:101A7000844237D1FFF738F8A0EB08012868B1425B
:101A8000F0D981693940C91BB1FA81F149098C4209
:101A9000E8D116E080693840C01BB0FA80F04009F8
:101AA00084424FF0000018BFBDE8F081FFF71CF83A
:101AB000286881693940C91BB1FA81F149098C4212
:101AC000E8D100202021286385F83D1085F83E00EC
:101AD000296C41F02001296485F83C000120BDE813
:101AE000F08100BF0020BDE8F0810000F0B581B0BA
:101AF000044600681D4643698FB203EA0701B942F4
:101B000002D1002001B0F0BD4169164601323CD03F
:101B1000490512D47EB300BFFEF7E6FF411B2068E3
:101B2000B14203D941693940B9422BD141693940A9
:101B3000B942E6D041694905EED5016841F400712A
:101B400001606FF480614161042000212022216343
:101B500084F83D2084F83E10226C1043206484F801
:101B60003C10012001B0F0BD41693940B942C8D0F4
:101B700041694905E1D4FEF7B7FF20684169394062
:101B8000B942F1D02020E0E741694905D5D4416947
:101B90003940B942B5D041694905CED4416939408F
:101BA000B942AED041694905C7D441693940B9420B
:101BB000A7D041694905C0D441693940B942E3D150
:101BC0009FE7000070B50368044653F8140F000641
:101BD00011D40E46481C29D086BB00BF18684005AA
:101BE00027D4FEF781FF236853F8140F000637D57A
:101BF00018680006F2D5002070BD00BF1868000606
:101C0000F9D41868400514D418680006F3D418688D
:101C100040050ED418680006EDD41868400508D4B5
:101C2000186800064FF0000048BF70BD18684005F6
:101C3000E4D56FF480601860042012E0154603E0DC
:101C400053F8140F0006D6D418684005F1D4FEF7F7
:101C50004BFF401B2368B042F2D958690006EFD40D
:101C6000202000212022216384F83D2084F83E10AA
:101C7000226C10432064012084F83C1070BD0000E9
:101C8000FEE70000FEE7000000000000000000008A
:101C9000EFF30980BFF36F8F0D4B1A6820E9F00F47
:101CA00010602DE908404FF0500080F3118802F0D9
:101CB0000BFA4FF0000080F31188BDE80840196866
:101CC0000868B0E8F00F80F30988BFF36F8F7047A2
:101CD000F0000020000000000000000000000000F4
:101CE000074B19680868B0E8F00F80F30988BFF364
:101CF0006F8F4FF0000080F311884EF00D0E70478B
:101D0000F000002040F27800C2F20000006A0021DA
:101D10000222002303F024BA84B041F2040640F604
:101D200000044FF4FA70CEF20006C4F2010401F090
:101D3000BDFF40F278074FF001090025C2F200070D
:101D4000E8464FF0807A4FF0007B00BF01204FF053
:101D5000FF3101F09FFDB86A8DF8005000287BD05C
:101D6000FEF7C2FE0190B86A0021CDF808A002F08B
:101D7000F7FF204602210022FD6387F8405087F8D4
:101D8000415087F84290FEF7A9FE3068796A490011
:101D90003268121A8A420BD23268121A8A4207D269
:101DA0003268121A8A4203D23268121A8A42EFD378
:101DB000204602210122FEF791FE3068796A01EB8C
:101DC000810149003268121A8A420BD23268121A13
:101DD0008A4207D23268121A8A4203D23268121A31
:101DE0008A42EFD3204602210022FEF777FEB86A2E
:101DF0003C2102F0B5FF01281AD1FEF775FE0190D3
:101E000097F8410000B3F86BF0B1786AF96BADF860
:101E10000A90B1FBF0F04CF6093100EB8000400075
:101E2000C8F63D51A0FB01014809ADF808000DE0DE
:101E300087F8405087F8415087F84250FEF754FE2B
:101E4000CDE9010A08E000BFCDF808B087F840509E
:101E500087F8415087F84250B86841460522002370
:101E600002F0FCFB012803D17869012102F076F928
:101E7000322001F01BFFF86A8DF8009000287BD01B
:101E8000FEF732FE0190F86A0021CDF808A002F0BA
:101E900067FF204608210022BD6487F84C5087F870
:101EA0004D5087F84E90FEF719FE3068796A490068
:101EB0003268121A8A420BD23268121A8A4207D248
:101EC0003268121A8A4203D23268121A8A42EFD357
:101ED000204608210122FEF701FE3068796A01EBF5
:101EE000810149003268121A8A420BD23268121AF2
:101EF0008A4207D23268121A8A4203D23268121A10
:101F00008A42EFD3204608210022FEF7E7FDF86A57
:101F10003C2102F025FF01281AD1FEF7E5FD0190D2
:101F200097F84D0000B3B86CF0B1786AB96CADF8B1
:101F30000A90B1FBF0F04CF6093100EB8000400054
:101F4000C8F63D51A0FB01014809ADF808000DE0BD
:101F500087F84C5087F84D5087F84E50FEF7C4FD77
:101F6000CDE9010A08E000BFCDF808B087F84C5071
:101F700087F84D5087F84E50B86841460522002337
:101F800002F06CFB01287FF4E1AE7869012102F0D8
:101F9000E5F8DBE6012000F03DFFFBE780B5FFF749
:101FA00095F803F061F9012808BF80BDBDE88040C5
:101FB00002F05ABA70470000F0B581B0FEF794FD08
:101FC00040F27806C2F2000696F857100446481E02
:101FD00048F21F570128C5F2EB1705D8A4FB0701EB
:101FE000C1F3401207E000BF96F856000122022814
:101FF00018BF032934D140F60045C4F20105284634
:102000002021FEF76BFD96F86300411E012905D8DB
:10201000A4FB0701C1F3401207E000BF96F862106D
:102020000122022918BF032824D128461021FEF7D7
:1020300055FD707810B100223FE000BF96F85700C0
:10204000012803D096F8631001291DD148F2B5107C
:10205000C1F64E30A4FB0001C1F300122DE000BF19
:10206000012831D148F2B510C1F64E30A4FB000171
:10207000B6E700BF012929D148F2B510C1F64E30AC
:10208000A4FB0001C6E700BF96F8623096F8562020
:10209000DBB2023A023BB2FA82F2B3FA83F30338BC
:1020A00052095B09B0FA80F003391A434009B1FACA
:1020B00081F11043490941EA00022846402101B05C
:1020C000BDE8F040FEF70ABD002294E70022ACE72D
:1020D000FEE700008EB040F60044C4F20104FEF7B3
:1020E00003FD40F27806C2F200064FF08071002333
:1020F000C6E9140186F85830C6E9170186F864303D
:1021000008ABB26D07C3CDE90B01716EF06808AD85
:102110000D9129460022022302F0A0FAFFF74CFF9E
:1021200005F10C000290A4F5806048F21F5A40F2BD
:102130000C084FF0FF390190C5F2EB1A0DF1100BAE
:10214000C2F200080020039005E000BF00222046F4
:102150004021FEF7C3FC7069032101220023CDF862
:10216000009002F049F8C0071FD0B068594600221D
:10217000A14602F0D5FC01284FF003075BD006F121
:1021800050052ECD0DF1200CD6E918478CE80E0035
:102190000299F068C1E900548F6008A90022022367
:1021A00002F05CFA4C464FF0FF393078012813D129
:1021B00003F06AF805460398281AFB280AD37078BA
:1021C000012121EA000201984FF400617270FEF7CC
:1021D00085FC039500203070FEF786FC96F85710BA
:1021E00005464A1E012A71D8A5FB0A01C1F3401217
:1021F00073E000BF4FF4FA6028F8120002EB4200CF
:1022000006EB800040F8503F0121A0F807100022A3
:1022100000218280A1F2F511B1F5FA7F4FF00001A3
:1022200038BF012111408171B0685946002202F087
:1022300077FC0128A3D1FEF757FC9DF81020012A56
:10224000F2D89DF81B10059B81B9BDF8181041F21A
:102250007075A9420AD838F812409DF81A50B4F5A2
:10226000FA7F0BD80C1BB4F5967F07DD06EB8201D5
:10227000096B8842BED2C72101250CE04C1EA40880
:102280007C2C28F812109EBF00F5487006EB8204E3
:102290002063C7290AD802EB420006EB800040F811
:1022A000503F8180C77105720221BCE702EB4200FA
:1022B00006EB800040F8503F0022B1F5FA7F8180A4
:1022C000C2710572F0D90122A4E700BF96F856004A
:1022D0000122022818BF03292ED120462021FEF713
:1022E000FDFB96F86300411E012905D8A5FB0A01F4
:1022F000C1F3401207E000BF96F8621001220229E4
:1023000018BF032822D120461021FEF7E7FB707882
:1023100000287FF41BAF96F85700012803D096F8E9
:10232000631001291CD148F2B510C1F64E30A5FB4F
:102330000001C1F300120AE701282BD148F2B510C1
:10234000C1F64E30A5FB000150E700BF012923D1A3
:1023500048F2B510C1F64E30A5FB0001C8E700BF3A
:1023600096F8623096F85620DBB2023A023BB2FA97
:1023700082F2B3FA83F3033852095B09B0FA80F0B2
:1023800003391A434009B1FA81F11043490941EA7E
:102390000002DCE60022A0E70022B4E7F0B583B03B
:1023A00040F2E006C2F2000640F2F4140120C2F24C
:1023B000000430703071B07130723220F460FEF77A
:1023C000F3F920464E2105221423FEF745FC04466E
:1023D000002861D13220FEF7E7F943F63C0040F2D5
:1023E000F415C3F63C00C2F200050290642702AA6D
:1023F00028464E2104230097FEF738FD43F63C00A3
:10240000C2F62C00029002AA28464E21042300970F
:10241000FEF72CFD42F62C00C8F68C00029002AAB2
:1024200028464E2104230097FEF720FD40F60C00BD
:10243000CCF6CC00029002AA28464E210423009735
:10244000FEF714FD40F60C00C6F66C00029002AADE
:1024500028464E2104230097FEF708FD40F60C00A5
:10246000C1F61C00029002AA28464E2104230097C0
:10247000FEF7FCFC0220FEF797F940F60C00C2F6CE
:102480002C00029002AA28464E2104230097FEF752
:10249000EDFC0220FEF788F9B4FA84F0400970726E
:1024A00003B0F0BD40F2E002C2F20002527A012A0B
:1024B00018BF70472DE9F0418CB043F2531842F237
:1024C0004F04C4F63A68C2F2200418F15F4540F6A2
:1024D000DD4244EB020600283ED043F2531345F29E
:1024E0005222C4F23A53C7794DF6DF56C2F22002A7
:1024F00013F17745C4F642565641032F2CD0012FD5
:1025000028D0002F66D182884CF6CD435A43D70C91
:1025100040F2E7339F4238BFD30C45F627020DF156
:10252000180CC0F60002054660460E460621FDF76F
:1025300065FE9DF81C20069B1206314642EA1326D2
:1025400043F25312C0F23A02284642EA036529B91F
:1025500044E000BF4546264600293FD0CA79032AF9
:102560002ED0012A28D0002A42D18A884CF6CD43A9
:102570005A43D70C40F2E7339F4238BFD30C45F69D
:1025800027020DF1180CC0F60002044660460F4603
:102590000621FDF733FE9DF81C20069B12062046FF
:1025A00042EA132443F25312C0F23A0242EA0362AF
:1025B000394602F5807225E008F5807222E000BFFE
:1025C00043F2320443F25322C6F66354C3F63A424E
:1025D00018E000BF1D4616460029BFD142F62D5413
:1025E00043F25322C2F22004C2F63A520AE000BF7C
:1025F00043F25312C4F23A5245F2522402F5807269
:10260000C2F22004CDE908240022CDE906568DF857
:102610002820F8B1C279032A2ED845F64306C0F621
:102620000006DFE802F0032D1D2300BF807945F688
:102630000F0345F62F0645F61702C0F600030128E2
:10264000C0F60006C0F6000208BF1346022818BFF5
:102650001E4615E045F63706C0F6000610E000BF3E
:1026600045F61F06C0F600060AE000BF45F62F0635
:10267000C0F6000604E000BF45F63B06C0F60006C3
:10268000327842F2000C4FF02030C2F2200CCAB374
:10269000757842EA0C02002D5AD0FF27C2F22007BB
:1026A000B4783A4020F0DF3342EA052274B34FF6A3
:1026B000FF7EC2F2000EF57802EA0E0223F0DF334D
:1026C00042EA044215B3347922F07F4223F0DF332B
:1026D00042EA0562D4B1757903EA0C032344ADB133
:1026E000B4793B4043EA052384B1F57903EA0E034C
:1026F00043EA0443002D1CBF23F07F4343EA0563F4
:1027000029B929E04FF020324FF0203321B3CE79A0
:10271000032E71D845F64307C0F60007DFE806F040
:102720000230242C897945F6170745F60F06C0F6C6
:102730000007C0F60006012908BF3E4645F62F07F0
:10274000C0F60007022918BF37463978D9B95AE0D0
:102750004FF020330029DAD145F63707C0F60007DD
:10276000397881B94FE000BF45F61F07C0F6000772
:10277000397841B947E000BF45F62F07C0F600079A
:10278000397800293FD07D7841EA0C01EDB3FF266E
:10279000C2F22006BC78314020F0DF3041EA05214A
:1027A0009CB34FF6FF7EC2F2000EFD7801EA0E01E7
:1027B00020F0DF3041EA04413DB33C7921F07F4114
:1027C00020F0DF3041EA0561FCB17D7900EA0C00C0
:1027D0002044D5B1BC79304040EA0520ACB1FF7946
:1027E00000EA0E0040EA0440002F1CBF20F07F40AA
:1027F00040EA076009E000BF45F63B07C0F6000766
:1028000039780029BFD14FF02031CDE902100020E6
:1028100006A9CDE900238DF8100000F009F86946FB
:10282000012000F005F80CB0BDE8F0417047000051
:102830002DE9F04387B04FF02032CDE90322CDE9F6
:102840000122002200298DF8142041D00B78002BA2
:102850003ED04A788DF80430D2B38B788DF80520BD
:10286000B3B3CA788DF8063092B30B798DF8072090
:1028700073B34A798DF8083052B38B798DF80920FB
:1028800033B3CA798DF80A3012B30B7A8DF80B2066
:10289000F3B14A7A8DF80C30D2B18B7A8DF80D20D5
:1028A000B3B1CA7A8DF80E3092B10B7B8DF80F2040
:1028B00073B14A7B8DF8103052B18B7B8DF81120AB
:1028C00033B1C97B8DF81230002918BF8DF8131071
:1028D00040F2E005C2F20005AB792978002B2A7995
:1028E0002F7A18BF0223834298BF581EC0B22AA372
:1028F000185C012323EA0202801A00F0700203012F
:102900006FF07F00002F18BF6FF0770067F3C303ED
:102910001044021D8DF81900181D8DF81A00E86882
:102920000DF118098DF818208DF81B304FF0640850
:102930004A460423002918BF4E21CDF80080FEF737
:1029400095FA4FF0FF3701AEF01940782B7A20F05E
:102950000F02000163F3C30063F3C302441C05309C
:102960002978531C05328DF81A00E8688DF8182074
:102970008DF819304A4604238DF81B40002918BFF2
:102980004E21CDF80080FEF771FA01370F2FDBD111
:1029900007B0BDE8F08300BF0040145492B0FEF7CA
:1029A000A3FB08AC201D2421FDF7B5FD02200890F3
:1029B00001200C9010200D90002520460F95FEF769
:1029C00039FD28B1EFF3108072B600BFFEE700BFFB
:1029D0000F20CDE9030503A80021CDE90555079592
:1029E000FEF730FC20B1EFF3108072B6FEE700BFB7
:1029F000002741F21800CDE90A77CDE90877C4F243
:102A00000200016840F6000941F00401016001681C
:102A1000C4F2010901F00401039103990168002245
:102A200041F008010160016840F60A0401F0080164
:102A300003910399016841F001010160006840F6CB
:102A40000A0100F00100039003984846FEF746F89B
:102A500009F580684046702100224FF0700AFEF7A9
:102A60003DF808AE08944FF0010B02244846314669
:102A7000CDE909B70B94FDF723FF1420CDE9080732
:102A8000484631460A97FDF71BFF40463146CDE9DF
:102A900008ABCDE90A74FDF713FF04200025089068
:102AA000C1F2310548463146CDE909540B94FDF792
:102AB00007FF1020CDE9080548463146CDE90A4414
:102AC000FDF7FEFE4FF480600890A5F58010CDE97B
:102AD000090B48463146FDF7F3FE08200621002287
:102AE000FEF774FB0820FEF75FFB0A200621002298
:102AF000FEF76CFB0A20FEF757FB28200721002277
:102B0000FEF764FB2820FEF74FFB40F2F410A9F516
:102B10003441C2F2000048F2A0624FF48043C0F298
:102B2000010280E88600C0E90373C0E90577C0E9C7
:102B30000777FDF7DFFF28B1EFF3108072B600BF13
:102B4000FEE700BFFEF75CFC4DF68361C4F21B316B
:102B5000A0FB010140F27806880CC2F20006706208
:102B60004EF6FC50CEF20000016841F08071016029
:102B700041F20000CEF200004760016841F001011F
:102B80000160B763F76386F8407086F8417086F895
:102B900042707764B76486F84C7086F84D7086F89A
:102BA0004E70FDF7A1FF4FF08071C6E91401C6E930
:102BB000170140462021002286F8587086F864707C
:102BC000FDF78CFF404610210022FDF787FF4046AD
:102BD00040210022FDF782FF484602210022FDF736
:102BE0007DFF484608210022FDF778FF48464FF454
:102BF00000610022FDF772FFFFF7D0FB04201021D7
:102C0000002201F07FFCB06001201821002201F0B9
:102C100079FCF060012001F03FFC306101F08CFA9A
:102C2000B1687061002900F09780F168002900F018
:102C300099803169002900F09B80002800F0A48071
:102C400001200021032201F05DFC0028B06200F0A9
:102C50009580012000210322002501F053FC00286B
:102C6000F06200F08B8041F60557C0F6000758A0CF
:102C7000642101220023009702F0ECFC40F235773A
:102C8000B061C0F6000754A0322101220023009752
:102C900002F0E0FCB469F06102F0F6FA0246204668
:102CA00001210023009502F04DFD012840F07280C3
:102CB000F46902F0E9FA02460027204601210023C8
:102CC000009702F03FFD01286AD106F1200004219F
:102CD000CDE9001041F61950C0F6000040A14FF4B4
:102CE00080720023002402F0CFF901285ED142F265
:102CF000D5000527C0F600003BA14FF480720023E9
:102D0000CDE9007402F0C0F9012855D140F24D70B0
:102D100000270225C0F6000035A14FF48072002381
:102D2000CDE9005702F0B0F901284BD132480DF13E
:102D3000240C089030A0071D8ECFD0E905508CE8F8
:102D40008E00CDE90D5008A8002100F071F87060E8
:102D500000F068F8FEE700BFEFF3108072B600BF26
:102D6000FEE700BFEFF3108072B600BFFEE700BFC2
:102D7000EFF3108072B600BFFEE700BFEFF31080E4
:102D800072B600BFFEE700BFEFF3108072B600BF5F
:102D9000FEE700BFEFF3108072B600BFFEE700BF92
:102DA000EFF3108072B600BFFEE700BFEFF31080B4
:102DB00072B600BFFEE700BFEFF3108072B600BF2F
:102DC000FEE700BFEFF3108072B600BFFEE700BF62
:102DD00073616D706C650000616C65727400000059
:102DE00053656E736F7200005761726E696E670093
:102DF000446973706C61790003580008951F0008DE
:102E00000000000000000000800000000000000042
:102E10000000000080B5012898BF012000F046FFA7
:102E2000002080BD80B501F0CFF8002080BD0000FB
:102E3000B0B584B043698E4693B1846984B1058985
:102E4000D0E9001C026928B2843D18BFC51CCDE939
:102E5000005360467346029402F046F904B0B0BDD8
:102E60000589D0E90013028A28B2843D18BFC51C29
:102E700003AC18467346CDE9005402F005F90399F6
:102E8000012818BF0021084604B0B0BDF0B581B0DC
:102E900040F2F004C2F200040E46676A216805465B
:102EA000081D00F02BFD18B1681C0CD016E000BF07
:102EB00020680121C06A626801FA00F022EA00007D
:102EC0006060681C0AD14EB154F8500B011D2046B9
:102ED00001B0BDE8F04000F08FBD00BF2068ED19E3
:102EE000456007D3606B2168043101B0BDE8F04054
:102EF00000F050BD206B2168043100F04BFD206ACA
:102F0000854238BF256201B0F0BD00002DE9F041D7
:102F1000044600F07FFD40F2F006C2F20006306980
:102F200040F20835013030613068C2F2000548B126
:102F30007069002840D13068E16AC06A884298BF51
:102F4000346039E034603069012835D1284600F01A
:102F500011FD05F1140000F00DFD05F1280000F051
:102F600009FD05F13C0000F005FD05F1500000F001
:102F700001FD05F1640000F0FDFC05F1780000F0B2
:102F8000F9FC40F2CC18C2F20008404600F0F2FC16
:102F900008F11407384600F0EDFC06F1640000F07B
:102FA000E9FC06F13C0000F0E5FC06F1500000F001
:102FB000E1FCC6F8308077637068B16801220131A6
:102FC000B160E16A8A401043706001EB810005EB5B
:102FD0008000211D00F010FD00F040FD706988B1F7
:102FE0003068E16AC06A884228BFBDE8F0814EF6C9
:102FF0000450CEF200004FF080510160BFF34F8FBC
:10300000BFF36F8FBDE8F08140F2F00540F2083663
:103010004EF60458C2F20005C2F20006CEF20008D5
:103020004FF0805703E000BF204600F02FFDE86816
:10303000D0B100F0EFFCA86CC468201D00F05EFC6D
:10304000286901382861E8680138E86000F006FD69
:1030500094F851000228EAD00128E5D070B9206B1D
:1030600000F014FDE0E700BF30680228DFD3C8F8A5
:103070000070BFF34F8FBFF36F8FD8E74FF0500052
:1030800080F31188BFF36F8FBFF34F8FFEE700000F
:103090002DE9F047DDE909878246386B089C00EB93
:1030A000820004389946002920F0070644D00878A9
:1030B00087F83400D8B3487887F83500B8B38878F3
:1030C00087F8360098B3C87887F8370078B308795E
:1030D00087F8380058B3487987F8390038B38879C9
:1030E00087F83A0018B3C87987F83B00F8B1087A36
:1030F00087F83C00D8B1487A87F83D00B8B1887AA3
:1031000087F83E0098B1C87A87F83F0078B1087B0D
:1031100087F8400058B1487B87F8410038B1887B78
:1031200087F8420000281CBFC87B87F843000020B6
:1031300087F8430003E000BF002087F83400002533
:10314000381D062C28BF0624FC62C7E9114500F093
:103150001DFC07F1180000F019FC84F00700B861AD
:10316000304651464A463F617F62FD6487F85050C1
:1031700000F080FBB8F1000F386018BFC8F800708D
:10318000BDE8F08700294BD02DE9F04F81B0DDE993
:103190000A47994690460E46824600F03BFC40F2B4
:1031A000681BC2F2000BDBF8000018BB0BF1140423
:1031B000204600F0DFFB0BF12805284600F0DAFB83
:1031C00040F2482240F2C023CBE902450A9C002588
:1031D000C2F20002C2F200030A200C21009501F0A5
:1031E000D1F9CBF8000028B145F64B01C0F600013B
:1031F00000F006FD00F032FC381DC7F800A0C7E95A
:1032000006693C6200F0C2FBB8F1000F05D097F8E8
:10321000240040F0040087F8240001B0BDE8F08FDE
:103220004FF0500080F31188BFF36F8FBFF34F8FC3
:10323000FEE7000006480068006880F3088862B670
:1032400061B6BFF34F8FBFF36F8F00DF00BF000089
:1032500008ED00E081B00020009040F21000C2F2C2
:10326000000000684FF0500181F31188BFF36F8FA9
:10327000BFF34F8F013007D0FEE700BF009830B991
:10328000009820B9009810B900980028F6D001B035
:103290007047000086B040F2681AC2F2000A0DF1D1
:1032A0000C09EB46DAF8080005681DB1C06804682F
:1032B00001E000BF002400F0FFFE01F0E5FFDAF8B6
:1032C00010100646884220D3002DCAF8106051D055
:1032D000B4424FD802F048F9DAF80800C068C7686D
:1032E0003D1D284600F00AFB97F82400410745D40D
:1032F00000F0FA0087F8240082E000BF7860DAF876
:10330000080029463F6100F045FBDAF80800016833
:1033100031B3C068C76804683D1D284600F0EEFA66
:10332000396A3846884797F824004007EDD5B869D0
:103330002044A042E2D8DAF80000002800F03881EA
:10334000002003A991C101F08FFFDAF8000049467F
:103350000022002301F082F90028D6D128E100BF25
:10336000DAF80C10CAF81060CAE9021002F0FCF892
:103370004FE000BF65B1002210E000BFB8693F61B7
:103380000119B14279601DD90AF108001FE000BFA0
:10339000DAF80C000068B0FA80F04209DAF80000B0
:1033A000A11B00F059FC02F0DFF890BB4EF6045070
:1033B000CEF200004FF080510160BFF34F8FBFF39A
:1033C0006F8F26E0311B814206D20AF10C000068A3
:1033D000294600F0DFFA13E0DAF80000002800F0D8
:1033E0000581002003A991C101F03EFFDAF8000039
:1033F00049460022002301F031F9002800F0F68050
:10340000396A3846884704E00AF10C02106800F077
:10341000C1FADAF800005946002201F081FB0028C9
:103420003FF440AF00980028F3D4029E706910B1B9
:10343000301D00F063FA01F027FFDAF8101007469C
:1034400088420CD30098CAF8107009283DD9E0E7EB
:103450006860DAF8080021462D6100F09BFADAF87E
:103460000800016841B3C068C568D0F800802C1D11
:10347000204600F043FA296A2846884795F8240038
:103480004007ECD5A86940444045E1D8DAF800008F
:10349000002800F083800020CDE90308059501F0A5
:1034A000E3FEDAF8000049460022002301F0D6F8D6
:1034B0000028D4D172E000BFDAF80C10CAE902107B
:1034C0000098CAF810700928A3D8DFE800F00505B5
:1034D0000557415F0505574196F82400B26940F051
:1034E0000101019886F824101318314641F8043F71
:1034F000BB42366108D987420AF10802BFF486AFA1
:10350000834205D282E700BF381A9042FFF47CAFB5
:10351000316A3046884796F8240040077FF579AF36
:10352000DAF8000000284DD00198B16905960844EA
:103530000021CDE9031001F097FEDAF800004946BA
:103540000022002301F08AF800287FF462AF39E0FE
:1035500096F8240040F00101019886F82410002814
:10356000B06139D0384431460AF10C0241F8040FF9
:103570003661B84288BF0AF1080247E796F824008E
:1035800000F0FE0086F8240043E700BF96F8240010
:103590008107F5D4304600F079FA3AE74FF0500051
:1035A00080F31188BFF36F8FBFF34F8FFEE700BF2B
:1035B0004FF0500080F31188BFF36F8FBFF34F8F30
:1035C000FEE700BF4FF0500080F31188BFF36F8F0C
:1035D000BFF34F8FFEE700BF4FF0500080F311881C
:1035E000BFF36F8FBFF34F8FFEE700BF4FF0500068
:1035F00080F31188BFF36F8FBFF34F8FFEE700009A
:10360000F0B581B0044600F005FA94F94560012E4A
:103610000FDB04F1240500BF286850B1284601F0F3
:1036200069FF002818BF00F09BFBF0B2013E0128A3
:10363000F2D8FF2684F8456000F010FA00F0EAF9AD
:1036400094F94470012F0EDB04F11005286850B185
:10365000284601F04FFF002818BF00F081FBF8B2A8
:10366000013F0128F2D884F8446001B0BDE8F04081
:1036700000F0F4B970B5044600F01EFD40F2A41C41
:10368000C2F2000CDCF8042012B19CF8000020E02B
:1036900040F29430C2F20000420700F5205200F1DF
:1036A000070122F0070218BF21F007000021A2F154
:1036B0000803CCE90601CCF8043042E90211DCF839
:1036C0000420191AC0E900210120CCE902118CF86C
:1036D00000000025002C4FF0000148BF01215AD006
:1036E000084058D124F0070000F11003600708BF1C
:1036F00004F10803DCF80800591E81424BD26046F1
:1037000050F818EFDEF804509D422CD2DEF800107D
:10371000C1B174464D689D4218D20E68B6B1756845
:103720009D4217D23068A8B145689D4216D2046800
:10373000A4B165689D4215D22168A6460029E9D149
:1037400011E000BF0CF118000DE000BF8E462046CE
:1037500009E000BFB646084605E000BF8646304691
:1037600001E000BFA646964514D00268DEF800408E
:10377000E91A112904604FD30EEB0305680719D02D
:103780004FF0500080F31188BFF36F8FBFF34F8F5E
:10379000FEE700BF002501F0E7FE68075CD04FF0B0
:1037A000500080F31188BFF36F8FBFF34F8F00BFBE
:1037B000FEE700BF0CF118006960CEF8043000BFCE
:1037C0000168A9420AD20868A8420BD20168A9423E
:1037D00004D208680B46A842F2D304E00346084628
:1037E00001E000BF0B465C6869681E19AE4202D159
:1037F00021441D4659606C18844201D0044607E0FC
:10380000DCF80440A04203D0D0E9004008446860DE
:10381000AB422C6018BF1D60DEF80400DCE9021327
:1038200002F10805091A9942CCF8081038BFCCF803
:103830000C109CF8001000294FF0000118BF40F058
:103840000040CEE90010DCF810000130CCF8100088
:1038500001F08AFE6807A2D1284670BD40F2F00050
:10386000C2F20000016819B101688A6C01328A64F1
:1038700000687047034643F25520C0F600004FF041
:10388000807C21F0010103E90310A3F1400043F81B
:10389000202C704770B50D46044600F0BBF840F28E
:1038A000F006C2F200063068C06C90B930680121A1
:1038B00080F850106DB12846FFF7E8FA4EF6045034
:1038C000CEF200004FF080510160BFF34F8FBFF385
:1038D0006F8F00F0C3F800F09DF83068C56C2DB113
:1038E00031680020002C08BF681EC86430680021C1
:1038F00080F8501000F0B2F8284670BD0169D0E998
:103900000132D1F804C09A608445536008BF4A6010
:1039100000220261086801380860086870470000EA
:1039200040F2F001C2F20001086880690A68D26AB8
:103930000968C2F107028A617047000042F6985395
:10394000C2F20003036042F69830C2F20000086041
:10395000802010607047000043F22C23C2F2000365
:10396000036042F62C60C2F2000008604FF48070E1
:10397000106070474FF0FF31024642F8081F0021E7
:103980004260C0E90322016070470000002101612C
:103990007047000010B5D1F800C01CF1010213D02F
:1039A00000F1080462681368634511D853681C6805
:1039B000644511D85A68146864450FD85468236860
:1039C000A6466345EED90BE00269D2F804E007E0B1
:1039D0009646224604E000BF9E4601E096461A46FF
:1039E000C1F804E0CEF808108A60516008610168EF
:1039F0000131016010BD0000D0F800C043680861CB
:103A00009A68C1E90132516099600CF101010160CD
:103A1000704700004FF0500080F31188BFF36F8FA4
:103A2000BFF34F8F40F21000C2F2000001684A1C41
:103A3000026009B1704700BF4EF60450CEF200009C
:103A40000068000608BF70474FF0500080F31188EF
:103A5000BFF36F8FBFF34F8FFEE7000040F21000FF
:103A6000C2F20000016839B10139016018BF704726
:103A7000002080F3118870474FF0500080F31188C8
:103A8000BFF36F8FBFF34F8FFEE7000070B50028C4
:103A900008BF70BD40F2A414C2F20004217850F8AF
:103AA000042C002918BF4FF0004111420ED0A0F1A4
:103AB00008052B68A3B14FF0500080F31188BFF3C5
:103AC0006F8FBFF34F8F00BFFEE700BF4FF0500076
:103AD00080F31188BFF36F8FBFF34F8FFEE700BFF6
:103AE00022EA010140F8041C064600F0E5FA56F807
:103AF000040CA1680144A16004F118010B68AB42F9
:103B00000AD21968A94213D20B68AB4204D21968D1
:103B10001A46A942F2D301E00A4619465368D6185C
:103B2000AE420AD02B188B420DD00B4612E000BFDC
:103B30001A465368D618AE42F4D118441546506060
:103B40002B188B42F1D16368994203D0D1E900313F
:103B500008446860AA422B6018BF15606069013094
:103B60006061BDE8704001F0FFBC00004EF2100043
:103B7000CEF2000000210160816040F20801C2F233
:103B80000001096844F6D352C1F26202A1FB02129D
:103B90004FF0FF3101EB9211416007210160704746
:103BA00040F2C410EFF305811029C2F2000011D3D6
:103BB0004EF2F032CEF20002895C0278914209D2D4
:103BC0004FF0500080F31188BFF36F8FBFF34F8F1A
:103BD000FEE700BF4EF60C51CEF2000109684068C6
:103BE00001F4E061814298BF70474FF0500080F3CC
:103BF0001188BFF36F8FBFF34F8F00BFFEE7000048
:103C000042F6EC5CC2F2000CDCF8003003B3634611
:103C100053F8082FEAB1634653F8102FCAB1634630
:103C200053F8182FAAB1634653F8202F8AB1634680
:103C300053F8282F6AB1634653F8302F4AB15CF825
:103C4000382F002A634608BFC3E90010704700BF41
:103C50006346C3E90010704770B515460E4604462A
:103C6000FFF7D8FE94F84400FF2804BF002084F832
:103C7000440094F84500FF2804BF002084F8450064
:103C8000FFF7ECFEA06B28B12046BDE87040FFF7BF
:103C9000B7BC00BF04F1240031462A4600F084F886
:103CA0002046BDE87040FFF7ABBC000070B50028AF
:103CB0003FD040F2F004C2F20004A16951B14FF0CC
:103CC000500080F31188BFF36F8FBFF34F8F00BF99
:103CD000FEE700BF0546A0690130A061666A206862
:103CE0000430FFF70BFE48B12068AD19456012D3D0
:103CF000606B21680431FFF74DFE15E0206801215B
:103D0000C06A626801FA00F022EA00006060206880
:103D1000AD194560ECD2206B21680431FFF73AFE03
:103D2000206A854238BF256201F01EFC002818BFBA
:103D300070BD4EF60450CEF200004FF0805101608D
:103D4000BFF34F8FBFF36F8F70BD000040F2F001E3
:103D5000C2F200018A6B0260496A4160704700004C
:103D600040F2F000C2F200000121816270470000C1
:103D700080B110B50C4640F2F001C2F200010968B2
:103D80001831FFF707FE20460121BDE81040FFF77C
:103D90007DB800BF4FF0500080F31188BFF36F8FE4
:103DA000BFF34F8FFEE7000070B588B140F2F00618
:103DB000C2F200060C46316815461831FFF71CFEAA
:103DC00085B14FF0FF302946BDE87040FFF75EB87F
:103DD0004FF0500080F31188BFF36F8FBFF34F8F08
:103DE000FEE700BF756A30680430FFF787FD58B101
:103DF00030686419446014D3706B31680431BDE8D5
:103E00007040FFF7C7BD00BF30680121C06A72680B
:103E100001FA00F022EA0000706030686419446022
:103E2000EAD2306B31680431FFF7B4FD306A844266
:103E300038BF346270BD000010B5A8B1144640F21E
:103E4000F002C2F200029369C3B1136841F000416D
:103E5000996111681831FFF7CFFD20460121BDE8B7
:103E60001040FFF713B800BF4FF0500080F31188E7
:103E7000BFF36F8FBFF34F8FFEE700BF4FF05000CF
:103E800080F31188BFF36F8FBFF34F8FFEE7000001
:103E9000F0B581B018B3826C22B3436C8B4288BFFB
:103EA0001946012A1BD1C26A8A4218D040F2F00595
:103EB000C2F200052B6898421ED08369C162002BB4
:103EC0005CBFC1F10701816140F20836416902EB34
:103ED0008202C2F2000606EB8202914216D001B0C5
:103EE000F0BD00BF4FF0500080F31188BFF36F8F1B
:103EF000BFF34F8FFEE700BF4FF0500080F31188F3
:103F0000BFF36F8FBFF34F8FFEE700BF041D07465F
:103F10002046FFF7F3FCF96A0122002802FA01F0BB
:103F200002D16A6882436A606A68024301EB8100D9
:103F300006EB800021466A6001B0BDE8F040FFF763
:103F40005BBD0000F0B581B040F2F005C2F20005A3
:103F5000AA692AB3C66841F00041016056B3FFF771
:103F6000CDFC341D2046FFF7C9FCF06A01276968C3
:103F700007FA00F21143696040F2083100EB80005B
:103F8000C2F2000101EB80002146FFF735FDF06A27
:103F90002968C96A884288BFAF6201B0F0BD00BF1E
:103FA0004FF0500080F31188BFF36F8FBFF34F8F36
:103FB000FEE700BF4FF0500080F31188BFF36F8F12
:103FC000BFF34F8FFEE7000010B588B00020CDE9A9
:103FD000050006A805A904AAFFF7B0FC059800286B
:103FE0003ED0069C002C45D05421049A0791079995
:103FF000542949D107992063022084F8510007A869
:104000000021CDE9001043F20900C0F6000028A10C
:1040100000230294FFF73CF82046FEF777FF07984D
:1040200040F2F004C2F20004E061B0B101F030FBF4
:10403000411C33D0012810D14FF0500080F311887B
:10404000BFF36F8FBFF34F8F4FF0FF30206201201F
:1040500060610020606200F06FF908B010BD00BF21
:104060004FF0500080F31188BFF36F8FBFF34F8F75
:10407000FEE700BF4FF0500080F31188BFF36F8F51
:10408000BFF34F8FFEE700BF4FF0500080F3118861
:10409000BFF36F8FBFF34F8FFEE700BF4FF05000AD
:1040A00080F31188BFF36F8FBFF34F8FFEE700BF20
:1040B00049444C450000000040F2F000C2F200000C
:1040C000816901318161704740F2F000C2F2000065
:1040D000816900291EBF0121816270470021816230
:1040E0004168B1FA81F1C9B2C1F11F0140F2083251
:1040F00001EB8101C2F2000252F8213063B102EB00
:104100008102516802F108034968994251600DD05B
:10411000C9680160704700BF4FF0500080F31188FC
:10412000BFF36F8FBFF34F8FFEE700BF4968516049
:10413000C968016070470000B0B51C20FFF79AFA0B
:10414000002808BFB0BD0025011D056004460846D3
:10415000FFF710FC20462576B0BD000060B1B1F13C
:10416000807F13D34FF0500080F31188BFF36F8F1F
:10417000BFF34F8FFEE700BF4FF0500080F3118870
:10418000BFF36F8FBFF34F8FFEE700BF2DE9F04104
:10419000044600F10C080D46FFF78EFF20682669E3
:1041A0002843464520601DD0002709E035B141F085
:1041B0000071DB0148BF1743FFF7C4FE46450DD031
:1041C0003046D6E90036216823F07F425D0101EADE
:1041D0000205EBD59542EAD0F0E700BF2068F9432D
:1041E00002E000BF4FF0FF310840206001F0BCF951
:1041F0002068BDE8F08100002DE9F04760B1B1F121
:10420000807F13D34FF0500080F31188BFF36F8F7E
:10421000BFF34F8FFEE700BF4FF0500080F31188CF
:10422000BFF36F8FBFF34F8FFEE700BF91B1089CC4
:10423000994690468A46074601F016F8A4B198B907
:104240004FF0500080F31188BFF36F8FBFF34F8F93
:10425000FEE700BF4FF0500080F31188BFF36F8F6F
:10426000BFF34F8FFEE700BFFFF726FF3D683846DC
:1042700005EA0A02B2EB0A0618BF0126B9F1000FDF
:104280005146B2FA82F308BF5E09EEB114B3434659
:10429000B8F1000F18BF01231E0606F18066B9F1C0
:1042A000000F08BF1E06043031432246FFF7C4FD4D
:1042B00001F05AF9A0B1FFF733FB044680011FD586
:1042C00024F07F40BDE8F087B8F1000F1CBF25EA5D
:1042D0000101016001F048F92846BDE8F08700BF00
:1042E0004EF60450CEF200004FF080510160BFF353
:1042F0004F8FBFF36F8FFFF713FB04468001DFD4AE
:10430000FFF788FB3C6814EA0A00A0EB0A0118BF1B
:104310000120B9F1000FB1FA81F118BF4809B8F1D5
:10432000000F1EBF002824EA0A003860FFF796FB42
:1043300024F07F40BDE8F087B0B584B04EF2004C69
:10434000CEF2000C9CF800100291FF218CF80010B6
:104350009CF800108DF807109DF8071001F050022E
:1043600040F2C411C2F200010A7007224A609DF9AE
:104370000720B2F1FF3F61DC032200BFD31C4B607A
:104380009DF8070040008DF807009DF90700B0F187
:10439000FF3F24DC931C4B609DF8070040008DF824
:1043A00007009DF90700B0F1FF3F18DC531C4B607C
:1043B0009DF8070040008DF807009DF90700B0F157
:1043C000FF3F0CDC4A609DF80700043A40008DF87E
:1043D00007009DF90700B0F1FF3FCFDD131D032B50
:1043E0002CD14FF44070486002988CF80000DCF843
:1043F000200940F47000CCF82009DCF8200940F0D6
:104400007040CCF82009FFF7B1FB40F21004C2F273
:10441000000400252560FEF70DFFFFF755FE03950C
:1044200020684FF0500181F31188BFF36F8FBFF305
:104430004F8F013012D000BFFEE700BF4FF0500099
:1044400080F31188BFF36F8FBFF34F8FFEE700BF7C
:10445000039830B9039820B9039810B9039800283D
:10446000F6D0002004B0B0BD80B54FF0500080F30E
:104470001188BFF36F8FBFF34F8F00F00BFF30B188
:104480004EF60450CEF200004FF080510160002043
:1044900080F3118880BD0000B0B54820FFF7EAF82E
:1044A000044660B30025012084F846502460C4E926
:1044B0000F05FFF7AFFA2068D4E90F12A56302FBDE
:1044C0000103013901FB0201C4E90103FF20E1609E
:1044D00084F8440084F8450004F11000FFF74AFA1C
:1044E00004F12400FFF746FAFFF7B8FA204600214E
:1044F000002200232560C4E9025500F0AFF82046F1
:10450000B0BD0000A0B3F0B581B0054648434830C7
:104510000E46FFF7AFF8044630B30027204684F874
:104520004670002E18BF48302060C4E90F56FFF7D0
:1045300071FA2068D4E90F12A76302FB0103013965
:1045400001FB0201C4E90103FF20E16084F844009B
:1045500084F8450004F11000FFF70CFA04F1240080
:10456000FFF708FAFFF77AFA204601B0F0BD00BF66
:104570004FF0500080F31188BFF36F8FBFF34F8F60
:10458000FEE7000010B582B060B1ABB1F1B9EAB19D
:104590004FF0500080F31188BFF36F8FBFF34F8F40
:1045A000FEE700BF4FF0500080F31188BFF36F8F1C
:1045B000BFF34F8FFEE700BF4FF0500080F311882C
:1045C000BFF36F8FBFF34F8FFEE700BF51B14AB902
:1045D0004FF0500080F31188BFF36F8FBFF34F8F00
:1045E000FEE700BF48240194019C482C2CD1019C7B
:1045F000012483F84640002908BF1A461A60C3E91F
:104600000F011C46FFF706FA2068D4E90F120023B9
:1046100002FB010C013901FB0201A363C4E9010C97
:10462000FF20E16084F8440084F8450004F11000A4
:10463000FFF7A0F904F12400FFF79CF9FFF70EFA49
:10464000204602B010BD00BF4FF0500080F311882B
:10465000BFF36F8FBFF34F8FFEE700002DE9F04FE0
:1046600083B00292C0B11D460446F9B1022D02D1B9
:10467000E06B01285CD116460F4600F0F5FD18BB33
:1046800016B34FF0500080F31188BFF36F8FBFF364
:104690004F8F00BFFEE700BF4FF0500080F311883E
:1046A000BFF36F8FBFF34F8FFEE700BF206C002872
:1046B000DCD04FF0500080F31188BFF36F8FBFF351
:1046C0004F8F00BFFEE700BFFFF7A4F9A06B022DDC
:1046D00065D0E16B884262D30298002800F018810F
:1046E0006846FFF733FBFFF7B9F9FFF7E5FCFFF783
:1046F00091F994F84400FF2804BF002084F8440096
:1047000094F84500FF2804BF002084F84500FFF717
:10471000A5F9684602A900F069FC98B12046FEF7A9
:104720006FFF00F021FF002003B0BDE8F08F00BF55
:104730004FF0500080F31188BFF36F8FBFF34F8F9E
:10474000FEE700BF04F11008FFF764F9D4F83890D1
:10475000E66BFFF783F9B14516D102994046FFF7A2
:1047600007FB2046FEF74CFF00F0FEFE88B94EF630
:104770000450CEF200004FF080510160BFF34F8F24
:10478000BFF36F8F05E000BF2046FEF739FF00F052
:10479000EBFEFFF73FF9A06BE16B884266D2A66B98
:1047A000226CDAB139462DB3E068FBF76FFEE168A1
:1047B000206C2268091A9142E16003D2A16840424C
:1047C0000844E060A81EB0FA80F040093146002E8F
:1047D00018BF01210840361A18E000BF2068A8B9A8
:1047E000A06800F0DBFD0021B0FA80F0A160400974
:1047F0000DE000BF6068FBF749FED4E90101226CBF
:1048000010448842606001D3206860600120711C00
:10481000A16354F8241FA9B1204600F06BFE50B1EB
:104820004EF60450CEF200004FF080510160BFF30D
:104830004F8FBFF36F8FFFF711F9012003B0BDE871
:10484000F08F00BF0028F6D14EF60450CEF20000E3
:104850004FF080510160BFF34F8FBFF36F8FFFF7B1
:10486000FDF8012003B0BDE8F08F00BFE94602AEBD
:104870000CE000BF2046FEF7C3FE00F075FEFFF718
:10488000C9F8A06BE16B8842FFF489AF0298002859
:104890003ED0FFF7E3F8FFF70FFCFFF7BBF894F803
:1048A0004400FF2804BF002084F8440094F8450029
:1048B000FF2804BF002084F84500FFF7CFF84846E2
:1048C000314600F093FB00287FF428AFFFF7A2F8F1
:1048D000D4F838A0D4F83CB0FFF7C0F8DA45C9D115
:1048E00002994046FFF744FA2046FEF789FE00F0A1
:1048F0003BFE0028C3D14EF60450CEF200004FF02C
:1049000080510160BFF34F8FBFF36F8FB7E700BFD8
:10491000FFF7A4F8002003B0BDE8F08F2DE9F047C1
:1049200000B31D46044639B3022D02D1E06B0128C5
:1049300052D10E469046FFF733F9EFF3118A4FF04C
:10494000500080F31188BFF36F8FBFF34F8FA06BC0
:10495000022D1FD0E16B88421CD300208AF31188FE
:10496000BDE8F0874FF0500080F31188BFF36F8FE0
:10497000BFF34F8FFEE700BF206C0028D4D04FF06C
:10498000500080F31188BFF36F8FBFF34F8F00BFCC
:10499000FEE700BF94F84590A06BA76B226C2AB38A
:1049A00031465DB3E068FBF771FDE168206C226879
:1049B000091A9142E16003D2A16840420844E060D4
:1049C000A81EB0FA80F040093946002F18BF012117
:1049D00008403F1A1EE000BF4FF0500080F31188DE
:1049E000BFF36F8FBFF34F8FFEE700BF206888B91A
:1049F000A06800F0D3FC0020A0600BE06068FBF72B
:104A000045FDD4E90101226C10448842606001D365
:104A100020686060781CB9F1FF0FA06312D154F8D0
:104A2000240F98B1204600F065FD0146B8F1000F53
:104A30004FF0010018BF00290ED18AF31188BDE89C
:104A4000F08700BF09F1010084F8450001208AF3D6
:104A50001188BDE8F08700BFC8F800008AF311880C
:104A6000BDE8F08760B1026CA2B14FF0500080F356
:104A70001188BFF36F8FBFF34F8F00BFFEE700BFFA
:104A80004FF0500080F31188BFF36F8FBFF34F8F4B
:104A9000FEE700BF02686AB3B0B50D460446FFF7F3
:104AA0007FF82046EFF311844FF0500181F3118815
:104AB000BFF36F8FBFF34F8F826BC16B8A4215D2EA
:104AC00090F845100132FF29826321D150F8241F4C
:104AD00009B300F00FFD0146002D4FF0010018BF93
:104AE000002919D0286084F31188B0BD002084F318
:104AF0001188B0BD8268002ACED04FF0500080F3FC
:104B00001188BFF36F8FBFF34F8F00BFFEE700BF69
:104B1000013180F84510012084F31188B0BD0000F8
:104B20002DE9F04F83B0029290B11546044600295A
:104B300048D00E4600F098FBA0B99DB14FF0500050
:104B400080F31188BFF36F8FBFF34F8FFEE700BF75
:104B50004FF0500080F31188BFF36F8FBFF34F8F7A
:104B6000FEE700BFFEF756FFD4F838A0BAF1000FF9
:104B700036D0226C52B1D4E9023130461144E160A2
:104B8000994224BF2168E160FBF780FCAAF1010093
:104B9000A06354F8100F70B1204600F0ABFC50B188
:104BA0004EF60450CEF200004FF080510160BFF38A
:104BB0004F8FBFF36F8F0124FEF750FF204603B0E5
:104BC000BDE8F08F206C0028B3D04FF0500080F388
:104BD0001188BFF36F8FBFF34F8F00BFFEE700BF99
:104BE0000298002800F0B4806846FFF7AFF8FEF79F
:104BF00035FFFFF761FAFEF70DFF94F8440004F16A
:104C00002408FF2804BF002084F8440094F84500DD
:104C1000FF2804BF002084F84500FEF71FFF684608
:104C200002A900F0E3F978B12046FEF7E9FC00F0B4
:104C30009BFCFEF7EFFEA56BFEF710FF2DBB0024DB
:104C4000204603B0BDE8F08FFEF7E4FEA56BFEF74B
:104C500005FF2DB12046FEF7D3FC00F085FC14E0E3
:104C600002994046FFF784F82046FEF7C9FC00F0A1
:104C70007BFC50B94EF60450CEF200004FF080514C
:104C80000160BFF34F8FBFF36F8FFEF7C3FED4F801
:104C900038A0BAF1000F7FF46CAF4FF00009EB467B
:104CA00002AF13E02046FEF7ABFC00F05DFCFEF720
:104CB000B1FEA56BFEF7D2FE002DC0D0FEF7AAFE16
:104CC000D4F838A0BAF1000F7FF453AF029800284F
:104CD0003ED0FEF7C3FEFFF7EFF9FEF79BFE94F818
:104CE0004400FF2808BF84F8449094F84500FF284A
:104CF00008BF84F84590FEF7B1FE5846394600F0EB
:104D000075F90028CED1FEF785FEA56BFEF7A6FE4D
:104D100035B12046FEF774FC00F026FCCEE700BF5C
:104D200002994046FFF724F82046FEF769FC00F0A0
:104D30001BFC0028C2D14EF60450CEF200004FF00A
:104D400080510160BFF34F8FBFF36F8FB6E700BF95
:104D50000024FEF783FE204603B0BDE8F08F00007C
:104D60002DE9F04F83B0029160B10446006C98B118
:104D70004FF0500080F31188BFF36F8FBFF34F8F58
:104D8000FEE700BF4FF0500080F31188BFF36F8F34
:104D9000BFF34F8FFEE700BF0D4600F065FA58B92C
:104DA00055B14FF0500080F31188BFF36F8FBFF300
:104DB0004F8F00BFFEE700BFFEF72CFEA06BF8B1DF
:104DC0000138A063206810B9FEF748FDA06054F8D0
:104DD000100F70B1204600F08DFB50B14EF604501C
:104DE000CEF200004FF080510160BFF34F8FBFF350
:104DF0006F8F0126FEF732FE304603B0BDE8F08F1C
:104E00000298002800F0EA806846FEF79FFFFEF750
:104E100025FEFFF751F9FEF7FDFD94F8440004F17B
:104E20002408FF2804BF002084F8440094F84500BB
:104E3000FF2804BF002084F84500FEF70FFE6846F7
:104E400002A900F0D3F868B12046FEF7D9FB00F0C4
:104E50008BFBFEF7DFFDA56BFEF700FE4FF00006B3
:104E60007DBBC9E7FEF7D6FDA56BFEF7F7FD3DB1AB
:104E70002046FEF7C5FB00F077FB002621E000BFCF
:104E8000206808B1002607E0FEF7C4FDA06800F026
:104E9000DDFA0646FEF7E2FD02994046FEF768FF9E
:104EA0002046FEF7ADFB00F05FFB50B94EF6045014
:104EB000CEF200004FF080510160BFF34F8FBFF37F
:104EC0006F8FFEF7A7FDA06B00287FF479AF4FF03E
:104ED0000009EB4602AD11E02046FEF791FB00F021
:104EE00043FBFEF797FDA76BFEF7B8FD002F5FD0E1
:104EF000FEF790FDA06B00287FF462AF02980028B7
:104F00004AD0FEF7ABFDFFF7D7F8FEF783FD94F824
:104F10004400FF2808BF84F8449094F84500FF2817
:104F200008BF84F84590FEF799FD5846294600F0E1
:104F30005DF80028D0D1FEF76DFDD4F838A0FEF75B
:104F40008DFDBAF1000F05D02046FEF759FB00F0A9
:104F50000BFBCDE7206838B9FEF75CFDA06800F0D8
:104F600075FA0646FEF77AFD02994046FEF700FF05
:104F70002046FEF745FB00F0F7FA0028B8D14EF6C0
:104F80000450CEF200004FF080510160BFF34F8F0C
:104F9000BFF36F8FACE700BF06B34FF0500080F354
:104FA0001188BFF36F8FBFF34F8F00BFFEE700BFC5
:104FB00056B1FEF72FFDD8F8000058B1206B0068FD
:104FC000C0F1070107E000BF0026304603B0BDE88E
:104FD000F08F00BF0021A068FEF75AFF0026FEF701
:104FE0003DFD304603B0BDE8F08F0000B0B548B3DA
:104FF0000C4689B30546FEF70DFD40F2F00CC2F2F7
:10500000000CDCF824302268501C2FD0AE466868B3
:105010002D68DCF83810A94201D083422ED2181A2C
:10502000824229D9101A2060DCF838000024CEF81A
:105030000000DCF82400CEF80400FEF70FFD204647
:10504000B0BD00BF4FF0500080F31188BFF36F8FE9
:10505000BFF34F8FFEE700BF4FF0500080F3118881
:10506000BFF36F8FBFF34F8FFEE700BF0024FEF743
:10507000F5FC2046B0BD00BF002020600124FEF7F3
:10508000EDFC2046B0BD00002DE9F04184B007469C
:105090009000984615460E46FEF7ECFAF8B1044625
:1050A0005420FEF7E7FAB8B1DDE90A2100230463D2
:1050B00080F85130CDE900210446384631462A4671
:1050C00043460294FDF7E4FF2046FDF71FFF012051
:1050D00004B0BDE8F08100BF2046FEF7D7FC4FF0DA
:1050E000FF3004B0BDE8F08170B586B00B9CCCB148
:1050F0000C9E0EB354250495049D542D26D1049D79
:10510000DDF828C0022586F8515005AD3463CDE99D
:1051100000C50296FDF7BCFF3046FDF7F7FE059887
:1051200006B070BD4FF0500080F31188BFF36F8F51
:10513000BFF34F8FFEE700BF4FF0500080F31188A0
:10514000BFF36F8FBFF34F8FFEE700BF4FF05000EC
:1051500080F31188BFF36F8FBFF34F8FFEE700001E
:10516000F0B581B0D0B11F46164604460D46FEF795
:1051700051FC002F1CBFE06C386094F850000221F5
:10518000042E84F850104BD8DFE806F01B041816E4
:10519000120000BFE16C294312E000BF4FF0500045
:1051A00080F31188BFF36F8FBFF34F8FFEE700BF0F
:1051B000022801D100252DE0E56402E0E16C013117
:1051C000E16401284FF0010524D1261D3046FEF789
:1051D00095FB40F2F007E06AC2F20007796805FA31
:1051E00000F21143796040F2083100EB8000C2F216
:1051F000000101EB80003146FEF7FEFBA06AE8B13A
:105200004FF0500080F31188BFF36F8FBFF34F8FC3
:10521000FEE700BFFEF722FC284601B0F0BD00BF4C
:10522000E16C0131CDD04FF0500080F31188BFF315
:105230006F8FBFF34F8F00BFFEE700BFE06A396892
:10524000C96A88420AD94EF60450CEF200004FF0E7
:1052500080510160BFF34F8FBFF36F8F0125FEF7C1
:10526000FDFB284601B0F0BD40F2F000C2F20000A4
:10527000416900290FBF01208069B0FA80F0400920
:1052800018BF40007047000040F2F000C2F200007A
:10529000406A70472DE9F04740F2F006C2F200067E
:1052A000B06928B1F06A0130F0620020BDE8F087F3
:1052B000706A10F1010AC6F824A020D3306B006890
:1052C00050B14FF0500080F31188BFF36F8FBFF3E0
:1052D0004F8F00BFFEE700BF306B716B31637063AF
:1052E000B06B0130B063306B006828B1306BC068C0
:1052F000C068406802E000BF4FF0FF303062306AA3
:1053000040F208388245C2F2000801D2002434E09D
:10531000306B0024006868B34FF0010916E000BF4D
:10532000F86A716809FA00F2114300EB80007160BD
:1053300008EB80002946FEF75FFBF86A3168C96A0E
:10534000326B8842106828BF4C4698B1306BC068F9
:10535000C7683D4655F8040F82450DD32846FEF731
:10536000CDFAB86A0028DBD007F11800FEF7C6FABC
:10537000D6E700BF4FF0FF3030623068C06A00EB04
:10538000800058F82000012888BF0124B06A002856
:1053900018BF01242046BDE8F087000070B588B131
:1053A00040F2F005C2F20005296888420CD04FF0A7
:1053B000500080F31188BFF36F8FBFF34F8F00BF92
:1053C000FEE700BF002070BD816CA9B30139816484
:1053D0004FF000012ED1C26A436C9A422AD0041DBC
:1053E00006462046FEF78AFA002840F20830314689
:1053F000C2F200000CD1CA6A02EB820350F82330DB
:1054000033B901236E6803FA02F226EA02026A60E7
:105410004A6CC2F10703CA628B6101216B6891403B
:105420001943696002EB820100EB81002146FEF71F
:10543000E3FA0121084670BD4FF0500080F3118857
:10544000BFF36F8FBFF34F8FFEE70000002804BF4C
:1054500000207047F0B581B040F2F005C2F20005BF
:10546000C16A2A68D26A914218D28269002A04D499
:105470002A68D26AC2F10702826140F208364269A4
:1054800001EB8101C2F2000606EB81018A420FD0D6
:105490002968C96AC162012001B0F0BD416C286869
:1054A000C26A0020914238BF012001B0F0BD00BFA8
:1054B000041D07462046FEF721FA394638B9C86A66
:1054C00001226B6802FA00F023EA00006860286895
:1054D000C06AC86201216A688140114300EB800004
:1054E000696006EB80002146FEF786FA012001B0D4
:1054F000F0BD000070B5C068C5686DB105F1180455
:105500002046FEF7FBF940F2F006C2F20006B06951
:1055100060B106F164001BE04FF0500080F3118889
:10552000BFF36F8FBFF34F8FFEE700BF2C1D2046E8
:10553000FEF7E4F9E86A0121726881401143716065
:1055400040F2083100EB8000C2F2000101EB800064
:105550002146FEF751FAE86A3168C96A884292BF6B
:1055600000200120B06270BD2DE9F04140F2F0054D
:10557000C2F20005A86968B1FEF74CFAA8690138C3
:10558000A861A86980B10024FEF768FA2046BDE84A
:10559000F08100BF4FF0500080F31188BFF36F8F90
:1055A000BFF34F8FFEE700BF28690028EBD0686E7D
:1055B00078B340F208380126C2F20008286FC768A5
:1055C00007F11800FEF79AF93C1D2046FEF796F900
:1055D000F86A696806FA00F2114300EB800069601E
:1055E00008EB80002146FEF707FAF86A2968C96AC5
:1055F000884228BFAE62686E0028DFD1286B006841
:1056000020B1286BC068C068406801E04FF0FF30EF
:105610002862EC6A4CB10126FFF73CFE002818BF57
:10562000AE62013CF8D10020E862A86A0028AAD046
:105630004EF60450CEF200004FF080510160BFF3EF
:105640004F8F0124BFF36F8FFEF708FA2046BDE8A5
:10565000F08100002DE9F04182B0044628209846F0
:1056600015460F46FEF706F8064660B1DDF820C085
:10567000002086F82400204639462A464346CDE9D4
:1056800000C6FDF77FFD304602B0BDE8F0810000A6
:1056900070B586B0FEF7BEF940F26816C2F2000699
:1056A000306808BB06F114042046FEF763F906F1E2
:1056B00028052846FEF75EF940F2482240F2C02352
:1056C000C6E902450025C2F20002C2F200030A2028
:1056D0000C210095FEF756FF306028B145F64B01CE
:1056E000C0F60001FEF78CFAFEF7B8F93068D8B1C1
:1056F0000020CDE9040005A804A903AAFEF72CF9AF
:10570000DDE903200221059DCDE9001043F295203B
:10571000C0F6000009A100230295FFF7E5FC7060C8
:1057200010B1012006B070BD4FF0500080F3118819
:10573000BFF36F8FBFF34F8FFEE700BF546D722032
:1057400053766300E0B110B584B040F26814C2F241
:10575000000484462068E8B10529CDE90112CDF89E
:105760000CC01BDCFFF780FD0146206802291DD11B
:10577000069A01A90023FEF771FF04B010BD00BF17
:105780004FF0500080F31188BFF36F8FBFF34F8F3E
:10579000FEE700BF002004B010BD00BF01A91A46FB
:1057A0000023FFF7BBF804B010BD00BF01A9002221
:1057B0000023FEF753FF04B010BD30380A2801D291
:1057C000012070470020704704000008000000001E
:1057D00000000002000100001000000000000000B6
:1057E000000102030406070809000000000102038B
:1057F00004010202030405060708090A0B0C0D0E3A
:105800000F101064656661756C745461736B00539E
:10581000414645202020005741524E20202000467E
:1058200041554C542020002530336C752020004415
:10583000414E47455220002D2D2D00554E4B4E4FC9
:10584000574E0054494D454F555400546D72510008
:1058500070580008000000201800000050010008E7
:1058600088580008180000206838000070010008FF
:10587000010000001000000000127A00D007D007DD
:08588000AAAAAAAA0000000078
:04000005080000ED02
:00000001FF
